:020000040800F2
:1000000000200020A93D0008253D00082B3D0008E8
:1000100000000000000000000000000000000000E0
:10002000000000000000000000000000313D00085A
:1000300000000000000000003B3D0008453D0008B6
:10004000F93D0008F93D0008F93D0008F93D0008B8
:10005000F93D0008F93D0008F93D0008F93D0008A8
:10006000F93D0008553D0008F93D0008F93D00083C
:10007000F93D0008F93D000800000000F93D0008C6
:10008000000000006D3D00080000000000000000BE
:10009000F93D000800000000F93D0008F93D0008A6
:1000A000F93D0008F93D0008F93D0008F93D000858
:1000B000F93D0008F93D0008F93D0008853D0008BC
:1000C00010B5064C2378002B07D1054B002B02D02E
:1000D000044800E000BF0123237010BD4801002048
:1000E0000000000004C80008044B10B5002B03D02A
:1000F0000349044800E000BF10BDC04600000000F6
:100100004C01002004C80008002243088B4274D32D
:1001100003098B425FD3030A8B4244D3030B8B4208
:1001200028D3030C8B420DD3FF22090212BA030C11
:100130008B4202D31212090265D0030B8B4219D3F2
:1001400000E0090AC30B8B4201D3CB03C01A524112
:10015000830B8B4201D38B03C01A5241430B8B425A
:1001600001D34B03C01A5241030B8B4201D30B0343
:10017000C01A5241C30A8B4201D3CB02C01A52416A
:10018000830A8B4201D38B02C01A5241430A8B422D
:1001900001D34B02C01A5241030A8B4201D30B0216
:1001A000C01A5241CDD2C3098B4201D3CB01C01A30
:1001B000524183098B4201D38B01C01A524143093A
:1001C0008B4201D34B01C01A524103098B4201D328
:1001D0000B01C01A5241C3088B4201D3CB00C01A95
:1001E000524183088B4201D38B00C01A524143080D
:1001F0008B4201D34B00C01A5241411A00D2014632
:10020000524110467047FFE701B5002000F006F8A4
:1002100002BDC0460029F7D076E770477047C04658
:10022000844608006146FFE71FB500F087FC002800
:1002300001D40021C8421FBD10B500F013FC40429C
:10024000013010BD10B500F079FC002801DB002062
:1002500010BD012010BDC04610B500F06FFC002895
:1002600001DD002010BD012010BDC04610B500F01A
:100270001FFC002801DC002010BD012010BDC0467D
:1002800010B500F015FC002801DA002010BD012097
:1002900010BDC046002B11D1002A0FD1002900D17A
:1002A000002802D00021C943080007B4024802A177
:1002B0004018029003BDC04665FFFFFF03B46846C7
:1002C00001B5029800F04CF8019B9E4602B00CBCB0
:1002D0007047C046F0B5CE46474680B50700994600
:1002E0003B0C9C4613041B0C1D000E0061460004D1
:1002F000140C000C45434B4360436143C0182C0C65
:1003000020188C46834203D980235B029846C4445C
:10031000494679437243030C63442D042D0CC918DC
:10032000000440198918C0BCB946B046F0BDC046AB
:100330009E2110B5C905041CFFF7A2FF002803D1B8
:10034000201C00F013FF10BD9E21201CC90500F0E9
:100350005FFD00F00BFF80231B069C466044F2E724
:10036000F0B557464E464546DE46E0B504000D0062
:100370009246994683B08B4230D82DD0494650469C
:1003800000F032FF29000600200000F02DFF331A94
:100390009846203B9B4633D45A46534693404246A8
:1003A0001F00534693401E00AF423AD8AF4200D1DF
:1003B00078E05B46A41BBD41002B00DA75E000220B
:1003C00000230092019301235A4693400193012395
:1003D00042469340009328E08242CFD90022002376
:1003E000009201930C9B002B01D01C605D60009873
:1003F000019903B0F0BCBB46B246A946A046F0BD89
:10040000424620239B1A5246DA40414613004A4690
:100410008A40170042461F43534693401E00AF4296
:10042000C4D900220023009201934346002BD9D067
:10043000FB0772081A4346467B080EE0AB4201D127
:10044000A2420CD8A41A9D41012024196D4100211B
:10045000013E24184D41002E06D0AB42EED9013E9C
:1004600024196D41002EF8D1009801995B460019BE
:100470006941002B24DB2B005A464446D3402A0016
:10048000E2401C005B461500002B2ADB26009E4044
:10049000330026004746BE403200801A9941009042
:1004A00001919FE7A342BCD883E742462023002165
:1004B0009B1A0022009101920122DA40019286E704
:1004C000424620239B1A2A0046469A402300F340C6
:1004D000444613432A00E2401C005B461500002BF3
:1004E000D4DA42462F002023260097409B1ADE4094
:1004F0003B003343CDE7C046F0B5C64643025B0A36
:100500004E0245004F00DA00C40F9C46700A904628
:1005100000B52D0E3F0EC90FB6098C424BD0EA1B19
:10052000002A36DD002F61D0FF2D00D1ADE0802301
:10053000DB041E431B2A00DCD3E001204346181ACB
:10054000430100D48CE080018709380000F02EFEC2
:1005500005388740854200DCB6E02D1AB3483840A4
:10056000430704D00F230340042B00D00430430181
:1005700000D478E06A1CFE2D65D08001430A9C46B9
:10058000D2B26346D0051843E407204380BCB84686
:10059000F0BD002A35D07A1B002D00D0AFE04346D5
:1005A000002B00D1A7E0531E012A00D12FE1FF2A22
:1005B00069D01A00AAE0E91B002970DD002F37D0AE
:1005C000FF2D62D08023DB041E431B2900DCB0E03A
:1005D00001204044430143D50135FF2D33D0012391
:1005E000934A0340400810401843B9E7002E00D159
:1005F00083E0511E012A00D1D8E0FF2A45D00A002D
:1006000098E7FE276A1C174200D086E0002D00D034
:10061000B7E04346002B00D1F3E00022002EB0D01B
:10062000981B430100D4FAE043460C00F01A97E708
:10063000002E00D1C8E04A1E012900D1AEE0FF29FA
:1006400023D01100C1E70023FF229C4699E7FE2139
:100650006A1C114277D0FF2AF5D015004644700875
:10066000430700D07EE7C308FF2D0ED05B025B0A74
:100670009C46EAB285E7002E07D08022D2031342BF
:1006800003D0104201D10C000300002BDBD08020EE
:10069000C00318434002430A9C46FF2271E7002929
:1006A000D5D07A1B002D60D14346002B24D0531E99
:1006B000012A73D0FF2AE7D01A001B2A00DC85E04C
:1006C00001203D00801985E720233A00451B3800B2
:1006D0000135EA405D1BA840431E984100251043A8
:1006E0003EE7202330009B1A31009840D140431E42
:1006F0009841084322E70C0003001500B4E7FF2FE0
:10070000C1D080234046DB04184380461B2A51DDBC
:1007100001200C003D00301A12E743469F1B7B016D
:100720002BD4002F00D010E70023002400229C4689
:1007300027E7202332003000CA40591A8840431E60
:100740009841104345E7002D4AD14346002B63D022
:100750000022002E00D114E730004044430100D4B1
:100760007EE7324B013518407AE7FF2F8CD080238B
:100770004146DB04194388469FE743460C00F71ABD
:10078000E3E64246002A00D075E7002E00D07AE763
:100790008023DB0300249C46FF22F2E63000404425
:1007A0000125430100D45BE7022518E743460125F4
:1007B000981BC5E6202344464046D4409A1A9040F0
:1007C000431E98412043A4E70D004DE720234146F6
:1007D0004046D1409A1A9040431E9841084370E722
:1007E0004246002A00D14FE7002E00D14DE780227B
:1007F000D203134200D148E7104200D045E703007E
:1008000043E7002E90D00C0084460022B9E6434610
:100810000C00F01A013593E684460022B1E6002868
:1008200000D01DE7002300249C46AAE6FFFFFFFB43
:10083000FFFFFF7DF0B54F464646D6464502C0B5A0
:1008400047000C1C6D0A3F0EC60F002F00D170E050
:10085000FF2F00D175E0EB008025ED041D43002340
:1008600099469A467F3F6002430A984663001B0EF2
:10087000E40F002B4ED0FF2B46D04246D000802202
:10088000D2040243904600227F3B3100FF1A4B46C0
:100890006140C9B213430F2B00D9B5E06E489B00ED
:1008A000C3589F4600239846260045469246534625
:1008B000022B00D189E0032B00D19EE0012B18D040
:1008C0003B007F33002B69DD6A0704D00F222A40EA
:1008D000042A00D004352A0103D5604B1D403B009B
:1008E0008033FE2B00DD70E0AD016D0AD8B202E06E
:1008F0000E0000200025C0052843F6073043E0BC69
:10090000BA46B146A846F0BD4346002B3FD102226D
:10091000FF3F03E04346002B2DD1012231004B461F
:100920006140C9B213430F2B34D84D489B00C358C4
:100930009F46002D13D104239946033B00279A4676
:1009400091E7002D05D108239946063BFF279A46DB
:1009500089E70C239946093BFF279A4683E728003D
:1009600000F024FC7627431F9D4000237F429946D8
:100970009A463F1A77E7404600F018FC4246431F6C
:100980009A4076235B4290461B1A00227DE7FF23A4
:1009900003227AE70E00FF200025ACE70120C01AF1
:1009A0001B28A6DC9E372A00BD40C2406B1E9D411D
:1009B00015436B0704D00F232B40042B00D00435C4
:1009C0006B0144D50120002595E7FF20002592E723
:1009D00080250026FF20ED038DE700239846802028
:1009E000C003054209D04346034206D145460543AC
:1009F0006D022600FF206D0A7DE78020C0030543BD
:100A00006D02FF206D0A76E742466B01500183427A
:100A100019D21B220025013F01261C006D005B003E
:100A2000002C01DB984201D81B1A3543013A002AF9
:100A3000F3D15A1E93411D433B007F330E00002B20
:100A400000DD41E7AAE71A2201251B1AE4E7AD0100
:100A500000206D0A4FE7C04664C80008FFFFFFF79B
:100A6000A4C8000870B5420045024E024C00C30FF6
:100A70006D0A0120120E760A240EC90FFF2A06D035
:100A8000FF2C03D0A24201D1B54206D070BD002D8B
:100A9000FCD1FF2CFAD1002EF8D18B4206D00120D8
:100AA000002AF3D12800431E9841EFE70020EDE72C
:100AB00070B5420045024E024C00C30F6D0A120E83
:100AC000760A240EC80FFF2A1BD0FF2C0ED0002A56
:100AD0001BD1002C01D1002E1CD0002D0CD0834244
:100AE0001CD00221581E0840013870BD002E22D1B2
:100AF000002AF4D1002DF2D10028F6D10120404285
:100B0000F3E7002D17D1FF2CF0D0002CE7D1002EF9
:100B1000E5D1E6E70020002DE7D0E2E7A24205DCC0
:100B2000EADBB54202D8E7D30020DEE74342584172
:100B300040000138D9E702204042D6E770B54200B4
:100B400045024E024C00C30F6D0A120E760A240EA7
:100B5000C80FFF2A0BD0FF2C0DD0002A1FD1002C6C
:100B600016D1002E14D10020002D10D009E0002D48
:100B70000CD1FF2C13D1002E08D1002A08D08342BB
:100B800012D00221581E0840013800E0022070BD3A
:100B9000002DF4D10028FAD101204042F7E7002CC3
:100BA000EDD1002EEBD1ECE7A24205DCF2DBB54241
:100BB00002D8EFD30020EAE7434258414000013811
:100BC000E5E7C046F0B54F464646D64644024500E6
:100BD000C0B5640A0F1C2D0EC60F002D00D18DE08C
:100BE000FF2D00D192E00023802099469A46E40030
:100BF000C00404437F3D7802430A98467B001B0EE5
:100C0000FF0F002B00D170E0FF2B00D186E04246A1
:100C1000D00080227F3BED180023D204024390468F
:100C20009C4631004B467940681C0F2B1CD8764AF5
:100C30009B00D3589F4639004446E2465346022B58
:100C40000FD0032B00D1D7E0012B37D10020002497
:100C5000C0052043C9070843E0BCBA46B146A846D0
:100C6000F0BDFF200024F3E7260C2404220C4446A8
:100C70002404240C434627001B0C574374435A4357
:100C80005E4312193B0C9B189C4203D980225202EE
:100C9000944666443F041A043F0CD2199401671E1F
:100CA000BC411B0C920E9B1914439B011C431B015E
:100CB00000D49BE0012362081C40144302007F32F1
:100CC000002A64DD630704D00F232340042B00D0E7
:100CD0000434230103D502004C4B80321C40FE2A11
:100CE000BFDCA401640AD0B2B2E74346002B3DD179
:100CF0004A4601331A4391469C4692E7002C29D17B
:100D000004239946033B00259A4674E7002C1BD127
:100D100008239946063BFF259A466CE74346FF3574
:100D2000002B0BD102234A461A4391469C4678E792
:100D300053463100022B00D083E792E703234A4653
:100D40001A4391469C466CE70C239946093BFF25C4
:100D50009A4650E7200000F029FA7625431F9C4070
:100D600000236D4299469A462D1A44E7404600F00A
:100D70001DFA4246431F9A4000232D1A90469C4676
:100D8000763D4EE780240021FF20E40360E7012345
:100D90009B1A1B2B00DD59E722009E30DA4084406D
:100DA0001300621E94411C43630704D00F232340A9
:100DB000042B00D0043463011AD50120002447E736
:100DC0008020C003044209D04346034206D1444672
:100DD000044364023900FF20640A39E78020C0031D
:100DE000044364023100FF20640A31E7280065E70C
:100DF000A4010020640A2BE78020C003044364029E
:100E0000FF20640A24E7C046E4C80008FFFFFFF79C
:100E1000F8B5CE46474643025B0A4E02DA009446D6
:100E2000720A914645004A0080B52D0E1F00C40F7E
:100E3000120EC90FB609FF2A5BD0012041408C4237
:100E400039D0A81A00285ADD002A6AD0FF2D00D117
:100E5000D9E08022D20416431B2800DCE9E00120FF
:100E60006346181A430100D4B4E0800187093800B2
:100E700000F09CF905388740854200DCCCE02D1A53
:100E8000B5483840430704D00F230340042B00D05B
:100E90000430430100D4A0E06A1CFE2D00D18DE097
:100EA0008001470AD2B2D0053843E4072043C0BCD2
:100EB000B946B046F8BDA81A8046002845DD002A8C
:100EC00070D0FF2D00D19EE08023DB041E434346FB
:100ED0001B2B00DCD2E00120604443017AD50135B0
:100EE000FF2D6BD001239D4A03404008104018435A
:100EF000C8E7002E20D08C4223D02800FF380028DD
:100F000039D0571B002D00D09DE06346002B00D147
:100F1000DBE07B1E012F00D10DE1FF2F71D01F0000
:100F200098E0002E00D1A7E0421E012800D1E6E0A3
:100F3000FF2868D010008FE701204140A14200D077
:100F40007FE7FF2040428046A8444046002838D032
:100F5000511B002D00D1AEE0FF2A00D1DFE080233D
:100F60006046DB04184384461B2900DCD9E00120DD
:100F700015008019B1E7FE206A1C104271D1002DC6
:100F800000D0A6E06346002B00D1D9E00022002E5D
:100F900000D188E7981B430100D4E1E063460C00D0
:100FA000F01A6FE7002E00D1B7E00200013A0128E5
:100FB00000D19CE0FF2826D0904688E7FF2200273A
:100FC00071E7FE206A1C104264D0FF2AF6D015009B
:100FD00066447008430700D056E7C308FF2D12D0BF
:100FE0005B025F0AEAB25EE76246002A00D196E041
:100FF000002E08D08022D203134204D0484610426B
:1010000001D10C004B46002BD8D08027FF031F4393
:101010007F02FF227F0A46E720233A00451B380063
:101020000135EA405D1BA840431E9841002510434E
:1010300028E720231B1A32009E40C2403000431E86
:10104000984110430CE7FF2ADBD080236046DB0485
:10105000184384461B2F56DD01200C001500301A62
:1010600000E763469F1B7B013DD4002F00D0FEE6C6
:1010700000240022002716E70500AFE732004346B0
:101080004146DA4020235B1A9E403000431E9841BF
:10109000104321E7002DA7D16346002B59D0002231
:1010A000002E00D1FFE630006044430192D52A4B68
:1010B000013518408EE76346002B47D04B1E0129AF
:1010C00015D0FF292BD019004EE70C004B463D00F0
:1010D00084E76246002A8BD1002E92D1802700241B
:1010E000FF22FF03DFE663460C00F71ABFE630007D
:1010F00060440125430100D46CE70225F2E6634613
:101100000125981BAEE6202364466046FC40DF1BA9
:10111000B840431E984120439FE705005EE74B46D9
:1011200071E7202365466046CD40591A8840431E2A
:10113000984128431CE763460C000125F01A91E60C
:10114000002E95D00C004F460022ACE64B460D0019
:1011500044E74F460022A6E6FFFFFFFBFFFFFF7DAF
:10116000002800D036E7002400279CE64102420018
:10117000C30F490A0020120E7E2A03DD9D2A02DDDC
:10118000094A98187047802000040143952A07DC1B
:101190009620821AD1404842002BF3D10800F1E793
:1011A000963A9140F7E7C046FFFFFF7F1C210123DD
:1011B0001B04984201D3000C10391B0A984201D33A
:1011C000000A08391B09984201D30009043902A218
:1011D000105C40187047C04604030202010101017F
:1011E000000000000000000010B5002903D1FFF747
:1011F000DDFF203002E00800FFF7D8FF10BDC04639
:1012000090B585B000AF08217B1801221A707B18B9
:1012100000225A707B1800229A707B180022DA7024
:101220007B1800221A713B1D02221A703B1D0022FE
:101230005A7002F0E3FD00F09FFC00F0E9FE00F0C0
:10124000C9FE00F00FFD00F0BBFD00F039FE00F01C
:101250007BFD0AF029FED64B0021180003F01CFA92
:10126000D44B180006F0AEFCD34B0021180006F05A
:101270003DFDD24B0021180006F038FDCF4B042174
:10128000180006F033FDCE4B01220821180003F0B0
:10129000CCFECB4B01220421180003F0C6FEC94B43
:1012A00001229A70C74B0122DA70C64B02221A71D2
:1012B00002F0E0FBFA239B00180002F00FFEC14B86
:1012C00002225A70BF4B00229A70BE4B0222DA7083
:1012D000BC4B03221A7102F0CDFBFA239B001800CD
:1012E00002F0FCFDA023DB054021180003F080FE86
:1012F000031E0BD1A023DB058021180003F078FE2C
:10130000031E03D100F04AFF00F026FCA023DB05FA
:101310004021180003F06CFE031E0CD1A023DB0556
:101320008021180003F064FE0300012B03D100F0BC
:10133000BFFF00F011FCA023DB054021180003F0E3
:1013400057FE0300012B0BD1A023DB0580211800E1
:1013500003F04EFE031E03D101F0D0FC00F0FCFBB5
:10136000994B1B78032B2FD0974B03221A708023A5
:10137000DB0093480122190003F057FE80239B00F5
:101380008F480122190003F050FE80235B008C4837
:101390000122190003F049FE8A4B17221A70894B6B
:1013A00017225A70874B17229A70864B1722DA70D1
:1013B000844B17221A71854B00221A70844B00222D
:1013C0001A70844B04221A70834B1A68AA231B01DB
:1013D0009A420ED2804B1B68804A934209D9804BB7
:1013E00000221A70774B18221A70764B16225A7008
:1013F0005BE1794B1B687B4A93420ED8764B1B68A6
:10140000794A934209D9764B01221A706D4B162204
:101410001A706C4B08225A7047E16F4B1B68734A75
:1014200093420ED86C4B1B68714A934209D96C4B9E
:1014300002221A70634B16221A70624B07225A70EE
:1014400033E1654B1B686B4A93420ED8624B1B68B5
:10145000694A934209D9624B03221A70594B1622EA
:101460001A70584B06225A701FE15B4B1B68634A87
:1014700093420ED8584B1B68614A934209D9584B86
:1014800004221A704F4B16221A704E4B05225A70C6
:101490000BE1514B1B685B4A93420ED84E4B1B68C5
:1014A000594A934209D94E4B05221A70454B1622D0
:1014B0001A70444B04225A70F7E0474B1B68534A9A
:1014C00093420ED8444B1B68514A934209D9444B6E
:1014D00006221A703B4B16221A703A4B03225A709E
:1014E000E3E03D4B1B684B4A93420FD83A4B1A68D6
:1014F000E623DB009A4209D9394B07221A70314B97
:1015000016221A702F4B02225A70CEE0324B1A6804
:10151000E123DB009A420ED22F4B1B683E4A9342D6
:1015200009D92F4B08221A70264B16221A70254B08
:1015300001225A70B9E0284B1B68384A93420FD8F1
:10154000254B1A68C823DB009A4209D9244B09228B
:101550001A701C4B14221A701A4B17225A70A4E0EE
:101560001D4B1B682E4A93420ED81B4B1B682D4AFD
:10157000934209D91A4B0A221A70124B15221A707B
:10158000104B01225A7090E0134B1B68264A93427D
:101590004ED8114B1B68254A934249D9104B0B2258
:1015A0001A70084B15221A70064B02225A707CE002
:1015B0006401002008020020480200208802002068
:1015C000000400502000002000000020EC02002059
:1015D000ED020020F0020020D00200206E0A000080
:1015E000EE0200201D0A0000D8090000B909000021
:1015F000740900004B09000006090000DD08000026
:10160000A20800008D0800000C0800000B08000074
:101610009407000089070000BD0600009406000042
:1016200021060000960500008B0500003205000031
:10163000C44B1A689B23DB009A420FD2C14B1A6835
:101640008C23DB009A4209D9BF4B0C221A70BF4B86
:1016500015221A70BD4B03225A7026E0B94B1B6845
:10166000BB4A93420ED8B74B1B68BA4A934209D97A
:10167000B54B0D221A70B54B15221A70B34B0422CC
:101680005A7012E0AF4B1B68B34A93420DD8AD4B72
:101690001B68B24A934208D9AB4B0E221A70AB4B6F
:1016A00015221A70A94B05225A70A74B1A78AC4B19
:1016B0001B789A4200D1AAE0A34B1B78002B24D1BF
:1016C00008217B1801221A707B1800225A707B189F
:1016D0001E229A700C007918A24B0522180009F0FE
:1016E000A5F90A2002F0FAFB21007B1801221A70EA
:1016F0007B1800225A707B1800229A707918994B37
:101700000522180009F092F97DE08F4B1B78092B18
:1017100024D108217B1801221A707B1800225A70EC
:101720007B1816229A700C0079188E4B052218002F
:1017300009F07CF90A2002F0D1FB21007B1801227C
:101740001A707B1800225A707B1800229A70791840
:10175000844B0522180009F069F954E07A4B1A7895
:101760007F4B1B789A4224D908217B1801221A70DA
:101770007B1800225A707B181D229A700C00791871
:10178000784B0522180009F051F90A2002F0A6FB57
:1017900021007B1801221A707B1800225A707B18D6
:1017A00000229A7079186F4B0522180009F03EF953
:1017B00029E0654B1A786A4B1B789A4223D208219C
:1017C0007B1801221A707B1800225A707B18142291
:1017D0009A700C007918634B0522180009F026F95D
:1017E0000A2002F07BFB21007B1801221A707B1873
:1017F00000225A707B1800229A707918594B0522E2
:10180000180009F013F9504B1A78554B1A704D4BCC
:101810005B68554A934211D980239B0053480122AB
:10182000190003F002FC80235B00504800221900DD
:1018300003F0FBFB4E4B02221A7028E0414B5A6822
:10184000FA239B009A4211D980239B00474800222B
:10185000190003F0EAFB80235B00444801221900D1
:1018600003F0E3FB424B01221A7010E080239B003F
:101870003E480122190003F0D8FB80235B003B485F
:101880000122190003F0D1FB394B00221A70384BAA
:101890001A78384B1B789A4200D120E1344B1B78E0
:1018A000012B69D108217B1801221A707B180022B4
:1018B0005A707B1852229A700C007918294B052215
:1018C000180009F0B3F80A2002F008FB21007B1889
:1018D00001221A707B1800225A707B1800229A701D
:1018E0000C0079181F4B0522180009F09FF80A20F8
:1018F00002F0F4FA21007B1801221A707B180022F2
:101900005A707B1852229A700C007918154B0522D8
:10191000180009F08BF80A2002F0E0FA21007B1889
:1019200001221A707B1800225A707B1800229A70CC
:1019300079180C4B0522180009F078F80A2002F0FB
:10194000CDFAC8E0D0020020EE02002020000020E6
:1019500041040000F2030000DD0300007A030000F0
:10196000EC02002014030020C40900000004005011
:10197000EF020020F00200207B4B1B78022B4FD19E
:1019800008217B1801221A707B1800225A707B18DC
:1019900051229A700C007918744B0522180009F036
:1019A00045F80A2002F09AFA21007B1801221A70E9
:1019B0007B1800225A707B1800229A700C0079184C
:1019C0006A4B0522180009F031F80A2002F086FA65
:1019D00021007B1801221A707B1800225A707B1894
:1019E00051229A700C007918604B0522180009F0FA
:1019F0001DF80A2002F072FA21007B1801221A70E9
:101A00007B1800225A707B1800229A707918574B65
:101A10000522180009F00AF80A2002F05FFA5AE0DD
:101A2000514B1B78002B56D1514B1B78012B27D1E2
:101A300008217B1801221A707B1800225A707B182B
:101A400051229A700C007918484B0522180008F0B2
:101A5000EDFF0A2002F042FA21007B1801221A70E1
:101A60007B1800225A707B1800229A7079183F4B1D
:101A70000522180008F0DAFF0A2002F02FFA2AE007
:101A80003B4B1B78022B26D108217B1801221A70B0
:101A90007B1800225A707B1852229A700C00791819
:101AA000324B0522180008F0C1FF0A2002F016FA96
:101AB00021007B1801221A707B1800225A707B18B3
:101AC00000229A707918294B0522180008F0AEFF01
:101AD0000A2002F003FA244B1A78254B1A70A0232F
:101AE000DB052021180003F083FA03001A00214BC4
:101AF0001B789A4230D008217B1801221A707B187B
:101B000000225A707B1808229A700C007918174B23
:101B10000522180008F08AFF0A2002F0DFF92100F0
:101B20007B1801221A707B1800225A707B18002241
:101B30009A7079180D4B0522180008F077FF0A20DB
:101B400002F0CCF9A023DB052021180003F050FAA5
:101B500003001A00074B1A7001F08CFF002002F0FE
:101B6000BDF9FFF7BFFBC046EF02002014030020C1
:101B7000F0020020F102002090B59DB000AF3824A3
:101B80003B19180038231A0000210AF033FE2423E1
:101B9000FB18180014231A0000210AF02BFE3B004A
:101BA000180024231A0000210AF024FE2B4B1B6886
:101BB0002B4A1A40294B802109010A431A6021004F
:101BC0007B1822221A607B180122DA607B1810220F
:101BD0001A617B1801229A617B1802229A627B1893
:101BE0000022DA627B188022D2021A637B188022DC
:101BF000D2035A637B18180005F08EF8031E01D03B
:101C000001F066FF24217B180F221A607B18032243
:101C10005A607B1800229A607B180022DA607B18D9
:101C200000221A617B180121180005F039FC031EFF
:101C300001D001F04DFF3B0040221A603B008022A2
:101C4000D2041A623B00180005F018FE031E01D0F2
:101C500001F03EFFC046BD461DB090BD0070004083
:101C6000FFE7FFFF80B582B000AF3B0018000823FC
:101C70001A0000210AF0BEFD304B314A1A602F4B8A
:101C80000022DA632D4B8022D2055A602B4B0022B2
:101C90009A602A4B00229A63284B01221A61274B33
:101CA0000022DA60254B202200219954234B212267
:101CB00000219954214B00229A62204BC222FF320C
:101CC0005A621E4B2C22002199541C4B04225A614B
:101CD0001A4B00221A63194B00229A61174B0022FB
:101CE0005A63164B0022DA61144B180002F01AF9FD
:101CF000031E01D001F0ECFE3B0001221A603B0004
:101D0000802252015A603A000C4B1100180002F078
:101D100017FB031E01D001F0DBFE3B00094A1A60ED
:101D20003A00064B1100180002F00AFB031E01D016
:101D300001F0CEFEC046BD4602B080BD6401002069
:101D4000002401400200000480B582B000AF3B00D7
:101D5000180008231A0000210AF04CFD154B164A02
:101D60001A60144B1F225A60124B00229A60114BCA
:101D7000124ADA600F4B00225A610E4B180005F030
:101D8000E1FE031E01D001F0A3FE3B0000221A6019
:101D90003B0000225A603A00064B1100180006F082
:101DA000E9FC031E01D001F093FEC046BD4602B01F
:101DB00080BDC0460802002000100040E70300007C
:101DC00080B58AB000AF1823FB18180010231A0042
:101DD00000210AF00FFD1023FB18180008231A0039
:101DE00000210AF007FD3B00180010231A00002113
:101DF0000AF000FD2F4B304A1A602E4B3F225A60EA
:101E00002C4B00229A602B4B2C4ADA60294B002283
:101E10001A61284B00225A61264B180005F092FEE9
:101E2000031E01D001F054FE18217B1880225201BC
:101E30001A607A181F4B1100180006F091F9031E62
:101E400001D001F045FE1B4B180005F007FF031EF3
:101E500001D001F03DFE10217B1800221A607B1892
:101E600000225A607A18134B1100180006F082FC09
:101E7000031E01D001F02CFE3B0060221A603B00E3
:101E800000225A603B0000229A603B000022DA6088
:101E90003900084B0022180006F09CF8031E01D000
:101EA00001F016FE034B180001F0D4FEC046BD46FB
:101EB0000AB080BD4802002000080140E70300008E
:101EC00080B58AB000AF1823FB18180010231A0041
:101ED00000210AF08FFC1023FB18180008231A00B9
:101EE00000210AF087FC3B00180010231A00002193
:101EF0000AF080FC344B354A1A60334B1F225A607B
:101F0000314B00229A60304B314ADA602E4B00226E
:101F10001A612D4B00225A612B4B180005F012FE5E
:101F2000031E01D001F0D4FD18217B18802252013C
:101F30001A607A18244B1100180006F011F9031EDC
:101F400001D001F0C5FD204B180005F087FE031EEF
:101F500001D001F0BDFD10217B1800221A607B1812
:101F600000225A607A18184B1100180006F002FC83
:101F7000031E01D001F0ACFD3B0060221A603B0063
:101F800000225A603B0000229A603B000022DA6087
:101F900039000D4B0022180006F01CF8031E01D07A
:101FA00001F096FD3900084B0422180006F012F8E3
:101FB000031E01D001F08CFD034B180001F04AFE16
:101FC000C046BD460AB080BD880200200014014012
:101FD000E703000080B582B000AF0C4B1A6B0B4BCF
:101FE00001210A431A63094B1B6B012213407B60DA
:101FF0007B6800220021092002F098FC092002F0F1
:10200000AAFCC046BD4602B080BDC04600100240DA
:1020100090B589B000AF0C243B19180014231A00A6
:1020200000210AF0E7FB344BDA6A334B04210A4300
:10203000DA62314BDB6A04221340BB60BB682E4B73
:10204000DA6A2D4B01210A43DA622B4BDB6A01224B
:1020500013407B607B68284BDA6A274B02210A43D6
:10206000DA62254BDB6A022213403B603B6823495E
:10207000234B0022180002F0D8FF2249224B0022F5
:10208000180002F0D2FF3B191C4A1A603B190122CA
:102090005A603B1900229A603B190022DA603B1912
:1020A000174A1900100002F02DFE3B19F0221A60A9
:1020B0003B1900225A603B1900229A603A19A0236A
:1020C000DB051100180002F01DFE21007B180D4AEF
:1020D0001A607B1801225A607B1800229A607B18D4
:1020E0000022DA607B18084A1900100002F00AFE8C
:1020F000C046BD4609B090BD00100240FF1F000061
:10210000000800500C0700000004005080B582B0A9
:1021100000AF78607B681A681A4B1B689A422CD112
:1021200001F088FC184B1B685A1C174B1A60174BA0
:102130001B685A1C154B1A60154B1B685A1C144B14
:102140001A60144B1B685A1C124B1A60104B1A6809
:10215000FA239B009A4202D90D4B00221A600E4BC3
:102160001B685A1C0C4B1A600B4B1A68FA235B0055
:102170009A4202D9084B00221A60C046BD4602B0FE
:1021800080BDC04608020020D8020020DC020020EA
:10219000E0020020E8020020E402002080B500AF49
:1021A0003C4B1B78002B20D03A4B00221A70802326
:1021B000DB0039480022190002F037FF80239B0022
:1021C00035480022190002F030FF80235B003248BE
:1021D0000022190002F029FF304B00221A70304B08
:1021E00000225A632E4B00229A632E4B1B685A1C06
:1021F0002C4B1A602B4B1B68642B37D9294B0022C0
:102200001A60294B1B68FA2291001800FDF77CFF29
:102210000300DBB20A33DAB2204B5A70224B1B6840
:1022200064211800FDF770FF03000A211800FDF774
:10223000F1FF0B00DAB2194B9A701B4B1B680A2195
:102240001800FDF761FF03000A211800FDF7E2FF07
:102250000B00DAB2114BDA70134B1B680A2118001D
:10226000FDF7D8FF0B00DAB20C4B1A71A023DB0587
:102270002021180002F0BCFE0300012B03D10B4B00
:1022800064225A6302E0094B00225A63C046BD46ED
:1022900080BDC04600000020000400502000002047
:1022A00000140140F4020020D00200200008014088
:1022B00080B500AFE24B1B78012B26D0E04B01220A
:1022C0001A708023DB00DF480122190002F0ADFE06
:1022D00080239B00DB480122190002F0A6FE802328
:1022E0005B00D8480122190002F09FFED64B17224E
:1022F0001A70D54B17225A70D34B17229A70D24BB3
:102300001722DA70D04B17221A71D04B5B68D04A73
:10231000934211D980239B00CA480122190002F080
:1023200084FE80235B00C7480022190002F07DFE76
:10233000C84B02221A7028E0C44B5A68FA239B004B
:102340009A4211D980239B00BE480022190002F056
:102350006CFE80235B00BB480122190002F065FE81
:10236000BC4B01221A7010E080239B00B54801226B
:10237000190002F05AFE80235B00B24801221900C6
:1023800002F053FEB34B00221A70B04B1A68AA2316
:102390001B019A421ED2AD4B1B68AF4A934219D91A
:1023A000AE4B00221A70A84B17221A70A64B0022BF
:1023B0005A70A54B17229A70A34B1722DA70A24BC2
:1023C00000221A71A64B00225A63A54B00229A6381
:1023D00000F077FC9D4B1B68A24A934248D89B4B68
:1023E0001B68A14A934243D99C4B01221A70964B19
:1023F00017221A70944B01225A70964B1B78012BAE
:1024000010D1974B3C225A63954B00229A638E4B16
:1024100017229A708C4B1722DA708B4B06221A7196
:1024200000F04FFC8B4B1B78022B10D18C4B002201
:102430005A638B4B3C229A63834B17229A70824BD0
:102440001722DA70804B06221A7100F03AFC844B96
:1024500000225A63824B00229A637B4B17229A70A8
:10246000794B1722DA70784B00221A7100F029FCA0
:10247000764B1B687D4A934248D8744B1B687C4A54
:10248000934243D9754B02221A706F4B17221A7070
:102490006D4B02225A706F4B1B78012B10D1704B81
:1024A00078225A636E4B00229A63674B17229A7008
:1024B000654B0122DA70644B02221A7100F001FCB4
:1024C000644B1B78022B10D1654B00225A63644B7E
:1024D00078229A635C4B17229A705B4B0122DA7068
:1024E000594B02221A7100F0ECFB5D4B00225A633B
:1024F0005B4B00229A63544B17229A70524B17225F
:10250000DA70514B00221A7100F0DBFB4F4B1B6855
:10251000584A934248D84D4B1B68574A934243D977
:102520004E4B03221A70484B17221A70464B032257
:102530005A70484B1B78012B10D1494BB4225A6377
:10254000474B00229A63404B17229A703E4B012260
:10255000DA703D4B08221A7100F0B3FB3D4B1B783B
:10256000022B10D13E4B00225A633D4BB4229A639A
:10257000354B17229A70344B0122DA70324B082205
:102580001A7100F09EFB364B00225A63344B002236
:102590009A632D4B17229A702B4B1722DA702A4B15
:1025A00000221A7100F08DFB284B1B68334A9342BE
:1025B00068D8264B1B68324A934263D9274B0422C2
:1025C0001A70214B17221A701F4B04225A70214B8C
:1025D0001B78012B0FD1224BF0225A63204B002293
:1025E0009A63194B17229A70174B0222DA70164B16
:1025F00003221A7165E3174B1B78022B0FD1184B7E
:1026000000225A63164BF0229A630F4B17229A70DE
:102610000D4B0222DA700C4B04221A7151E3104B5D
:1026200000225A630E4B00229A63074B17229A70BE
:10263000054B1722DA70044B00221A7141E3C046A1
:10264000000000200004005020000020D0020020E4
:10265000C4090000F80200206E0A0000F902002000
:10266000001401401D0A0000D8090000B90900004B
:10267000740900004B09000006090000DD08000095
:10268000A2080000D44B1B68D44A934247D8D24BCF
:102690001B68D34A934242D9D24B05221A70D24BBF
:1026A00017221A70D04B05225A70D04B1B78012B81
:1026B00010D1CF4B962252005A63CD4B00229A6321
:1026C000C94B17229A70C84B0322DA70C64B0022FE
:1026D0001A71F6E2C54B1B78022B10D1C44B0022B5
:1026E0005A63C34B962252009A63BF4B17229A70CB
:1026F000BD4B0322DA70BC4B00221A71E1E2BC4BE5
:1027000000225A63BA4B00229A63B74B17229A7081
:10271000B54B1722DA70B44B00221A71D1E2AE4BDE
:102720001B68B44A934247D8AB4B1B68B24A9342EA
:1027300042D9AC4B06221A70AB4B17221A70AA4B27
:1027400006225A70A94B1B78012B10D1A84BB4223A
:1027500052005A63A64B00229A63A34B17229A7029
:10276000A14B0322DA70A04B06221A71A9E29F4BFB
:102770001B78022B10D19E4B00225A639C4BB42233
:1027800052009A63984B17229A70974B0322DA7083
:10279000954B06221A7194E2954B00225A63944B92
:1027A00000229A63904B17229A708F4B1722DA708F
:1027B0008D4B00221A7184E2874B1B688F4A93422B
:1027C00048D8854B1A68E623DB009A4242D9854BEC
:1027D00007221A70844B17221A70834B07225A70F3
:1027E000824B1B78012B10D1814BD22252005A63AD
:1027F0007F4B00229A637C4B17229A707A4B0422FB
:10280000DA70794B02221A715BE2784B1B78022B4B
:1028100010D1774B00225A63754BD22252009A6333
:10282000714B17229A70704B0422DA706E4B0222A1
:102830001A7146E26E4B00225A636D4B00229A6376
:10284000694B17229A70684B1722DA70664B002288
:102850001A7136E2604B1A68E123DB009A4247D2D4
:102860005D4B1B68664A934242D95E4B08221A7040
:102870005D4B17221A705C4B08225A705B4B1B7819
:10288000012B10D15A4BF02252005A63584B0022B0
:102890009A63554B17229A70534B0422DA70524BAD
:1028A00008221A710DE2514B1B78022B10D1504BAC
:1028B00000225A634E4BF02252009A634A4B172271
:1028C0009A70494B0422DA70474B08221A71F8E1DA
:1028D000474B00225A63464B00229A63424B172211
:1028E0009A70414B1722DA703F4B00221A71E8E1CF
:1028F000394B1B68434A934246D8374B1A68C82362
:10290000DB009A4240D9374B09221A70364B172206
:102910001A70354B09225A70344B1B78012B0FD19A
:10292000334B394A5A63324B00229A632E4B17229B
:102930009A702D4B0522DA702B4B05221A71C0E1DB
:102940002A4B1B78022B0FD1294B00225A63284BAC
:102950002D4A9A63244B17229A70234B0522DA7072
:10296000214B05221A71ACE1214B00225A63204B06
:1029700000229A631C4B17229A701B4B1722DA70A5
:10298000194B00221A719CE1134B1B681F4A93429A
:1029900065D8114B1B681E4A934260D9114B0A221D
:1029A0001A70114B01221A700F4B00225A700F4BF4
:1029B0001B78012B2ED10E4BA02292005A630C4B98
:1029C00000229A63084B17229A70074B0622DA708E
:1029D000054B04221A7174E1D00200208D0800001A
:1029E0000C080000F902002020000020F80200205E
:1029F000001401400B080000940700008907000044
:102A0000BD0600009406000026020000210600001A
:102A100096050000AC4B1B78022B10D1AB4B00226B
:102A20005A63AA4BA02292009A63A94B17229A706C
:102A3000A74B0622DA70A64B04221A7141E1A34B80
:102A400000225A63A14B00229A63A14B17229A706D
:102A50009F4B1722DA709E4B00221A7131E19D4B79
:102A60001B689D4A934245D89A4B1B689B4A9342E8
:102A700040D99B4B0B221A70954B01221A70944B34
:102A800001225A70904B1B78012B0FD18F4B954A26
:102A90005A638E4B00229A638D4B17229A708C4B8F
:102AA0000722DA708A4B03221A710AE1864B1B78DF
:102AB000022B0FD1854B00225A63844B894A9A63BB
:102AC000834B17229A70824B0722DA70804B0322C5
:102AD0001A71F6E07D4B00225A637C4B00229A6308
:102AE0007B4B17229A707A4B1722DA70784B0022B0
:102AF0001A71E6E0774B1A689B23DB009A4248D2B2
:102B0000744B1A688C23DB009A4242D9744B0C2216
:102B10001A706F4B01221A706D4B02225A706A4B69
:102B20001B78012B10D1694BCD2292005A63674B61
:102B300000229A63664B17229A70654B0822DA705E
:102B4000634B02221A71BCE05F4B1B78022B10D141
:102B50005E4B00225A635D4BCD2292009A635C4B20
:102B600017229A705A4B0822DA70594B02221A71B6
:102B7000A7E0564B00225A63544B00229A63544BF1
:102B800017229A70524B1722DA70514B00221A7199
:102B900097E0504B1B68544A934245D84D4B1B68F5
:102BA000524A934240D94E4B0D221A70484B012293
:102BB0001A70474B03225A70434B1B78012B0FD1DD
:102BC000424B4B4A5A63414B00229A63404B1722B7
:102BD0009A703F4B0922DA703D4B01221A7170E066
:102BE000394B1B78022B0FD1384B00225A63374BDD
:102BF0003F4A9A63364B17229A70354B0922DA7096
:102C0000334B01221A715CE0304B00225A632F4B88
:102C100000229A632E4B17229A702D4B1722DA70DE
:102C20002B4B00221A714CE02A4B1B68314A93420D
:102C300047D8284B1B68304A934242D9284B0E2272
:102C40001A70234B01221A70214B04225A701E4B1A
:102C50001B78012B10D11D4BFA2292005A631B4B9B
:102C600000229A631A4B01229A70194B0022DA70E3
:102C7000174B00221A7124E0134B1B78022B10D142
:102C8000124B00225A63114BFA2292009A63104BA6
:102C900001229A700E4B0022DA700D4B00221A713D
:102CA0000FE00A4B00225A63084B00229A63084B3C
:102CB00017229A70064B1722DA70054B00221A7100
:102CC000FFE7C046BD4680BDF80200200014014069
:102CD00020000020D00200208B05000032050000FB
:102CE000F9020020DA02000041040000F2030000B3
:102CF0008E030000DD0300007A03000080B500AF02
:102D0000CE4B1B78022B32D0CC4B02221A70802380
:102D1000DB00CB480122190002F087F980239B00D9
:102D2000C7480122190002F080F980235B00C448E3
:102D30000122190002F079F9C24B17221A70C14B17
:102D400017225A70BF4B17229A70BE4B1722DA70A7
:102D5000BC4B17221A71BC4B00221A60BB4B0022DD
:102D60001A60BB4B00221A60BA4B00221A70A023D3
:102D7000DB051021180002F03BF90300012B0AD1FA
:102D80008023DB00AE480022190002F04EF9B24B5E
:102D900001221A700FE08023DB00A94801221900EC
:102DA00002F043F9AC4B00221A70A74B00221A60C4
:102DB000A64B00221A60A94B5B68A94A934211D91D
:102DC00080239B009E480122190002F02EF98023E7
:102DD0005B009B480022190002F027F9A14B022258
:102DE0001A702BE09D4B5A68FA239B009A4211D926
:102DF00080239B0092480022190002F016F98023DC
:102E00005B008F480122190002F00FF9954B012257
:102E10001A7013E080239B0089480122190002F0F8
:102E200004F980235B0086480122190002F0FDF8B6
:102E30008C4B00221A70864B00221A60864B1B783E
:102E4000012B00D0AFE0824B1B680021181CFDF75E
:102E5000F3F9031E00D0A6E0A023DB052021180013
:102E600002F0C6F80300012B0AD1784B1B687E4A9A
:102E7000934202D97D4B00225A63744B00221A60A0
:102E8000A023DB052021180002F0B2F8031E0AD1AE
:102E90006D4B1B68764A934202D9744B00225A63E9
:102EA000694B00221A60694B1B68724A93420ED923
:102EB000684B01221A70704B1B68F92B03D86B4BBF
:102EC00064225A6327E0694B00225A6323E05F4B78
:102ED0001A68FA235B019A420BD9674B1B68F92BDE
:102EE00003D8624B64225A6315E0604B00225A6398
:102EF00011E0564B1B685C4A93420CD95F4B1A6831
:102F0000FA235B009A4203D2584B64225A6302E0D0
:102F1000564B00225A634C4B1B68594A93420ED9B8
:102F20004C4B01221A70544B1B68F92B03D84F4BA2
:102F300064225A6326E04D4B00225A6322E0424B42
:102F40001B68504A93420BD94B4B1B68F92B03D893
:102F5000464B64225A6315E0444B00225A6311E049
:102F6000394B1B68424A93420CD9444B1A68FA23E6
:102F70005B009A4203D23D4B64225A6302E03B4B12
:102F800000225A63304B1B683F4A93421BD82F4B99
:102F90001B683E4A934216D8384B00221A60364BC3
:102FA00000221A600FE0314B00225A63334B00229B
:102FB0001A60314B00221A60234B00221A60234B07
:102FC00000221A6000E0C046244B1A68AA231B01A5
:102FD0009A4217D2214B1B682D4A934212D91C4B9F
:102FE0001B680021181CFDF727F9031E03D1194B9C
:102FF00001221A7002E0174B00221A70254B0022A2
:103000001A70FDE0154B1B68234A934208D8134BF6
:103010001B68224A934203D91E4B01221A70EFE02B
:103020000E4B1B681E4A93423ED80C4B1B681D4A30
:10303000934239D9174B02221A70E1E000000020B8
:103040000004005020000020D8020020DC020020F4
:10305000FC0200200003002001030020D002002019
:10306000C40900000203002088130000000801408A
:10307000983A0000F82A0000E4020020E002002054
:103080000852000050460000973A000087130000E5
:103090006E0A0000030300201D0A0000D80900008A
:1030A000B909000074090000C14B1B68C14A934272
:1030B00008D8BF4B1B68C04A934203D9BF4B0322B9
:1030C0001A709DE0BA4B1B68BD4A934208D8B84BB2
:1030D0001B68BC4A934203D9B84B04221A708FE094
:1030E000B34B1B68B84A934208D8B14B1B68B74A28
:1030F000934203D9B14B05221A7081E0AC4B1B6897
:10310000B34A934208D8AA4B1B68B24A934203D9E8
:10311000AA4B06221A7073E0A54B1B68AE4A934275
:1031200009D8A34B1A68E623DB009A4203D9A34BC4
:1031300007221A7064E09E4B1A68E123DB009A4272
:1031400008D29B4B1B68A54A934203D99B4B08228C
:103150001A7055E0964B1B68A14A934209D8944BCC
:103160001A68C823DB009A4203D9944B09221A70CB
:1031700046E08F4B1B689B4A934208D88C4B1B68D8
:10318000994A934203D98D4B0A221A7038E0884B32
:103190001B68964A934208D8854B1B68944A934211
:1031A00003D9864B0B221A702AE0814B1A689B23A5
:1031B000DB009A4209D27E4B1A688C23DB009A42CC
:1031C00003D97E4B0C221A701AE0794B1B68894A8E
:1031D000934208D8764B1B68874A934203D9774BB2
:1031E0000D221A700CE0724B1B68844A934207D878
:1031F0006F4B1B68824A934202D9704B0E221A70A1
:10320000804B1B78012B02D16C4B00221A707E4B35
:103210001B68642B00D8A6E27B4B00221A60674B28
:103220001B78002B1CD1794B18221A70774B162271
:103230005A70774B1B687749181CFDF717F8031E67
:103240000AD0734B1B687349181CFDF7E1FD031C82
:103250001A1C6F4B1A6086E26D4B00221A6082E2E4
:10326000564B1B78012B1CD1684B16221A70674BEA
:1032700008225A70664B1B686749181CFCF7F6FF5A
:10328000031E0AD0624B1B686349181CFDF7C0FD82
:10329000031C1A1C5E4B1A6065E25D4B00221A602B
:1032A00061E2464B1B78022B1CD1584B16221A7038
:1032B000564B07225A70564B1B685849181CFCF78E
:1032C000D5FF031E0AD0524B1B685449181CFDF74A
:1032D0009FFD031C1A1C4E4B1A6044E24C4B00220B
:1032E0001A6040E2354B1B78032B1ED1474B162248
:1032F0001A70464B06225A70454B1B688121C9053E
:10330000181CFCF7B3FF031E0BD0414B1B68812137
:10331000C905181CFDF77CFD031C1A1C3C4B1A60E8
:1033200021E23B4B00221A601DE2244B1B78042B48
:103330001CD1364B16221A70344B05225A70344B6E
:103340001B683749181CFCF791FF031E0AD0304B4D
:103350001B683349181CFDF75BFD031C1A1C2C4B22
:103360001A6000E22A4B00221A60FCE1134B1B7822
:10337000052B59D1254B16221A70244B04225A7062
:10338000234B1B682749181CFCF770FF031E0AD04B
:103390001F4B1B682349181CFDF73AFD031C1A1C20
:1033A0001B4B1A60DFE11A4B00221A60DBE1C046BA
:1033B000D00200204B090000060900000303002092
:1033C000DD080000A20800008D0800000C080000C5
:1033D0000B0800009407000089070000BD060000EC
:1033E0009406000021060000960500008B050000F1
:1033F0003205000041040000F2030000DD0300007C
:103400007A03000000030020E802002020000020D2
:10341000FC020020000020410000A040000090407D
:103420000000604000004040BE4B1B78062B1CD1C2
:10343000BD4B16221A70BC4B03225A70BB4B1B6843
:10344000BB49181CFCF712FF031E0AD0B74B1B68C0
:10345000B749181CFDF7DCFC031C1A1CB34B1A609F
:1034600081E1B24B00221A607DE1AE4B1B78072B45
:103470001ED1AD4B16221A70AB4B02225A70AB4BC9
:103480001B688021C905181CFCF7F0FE031E0BD039
:10349000A64B1B688021C905181CFDF7B9FC031C4D
:1034A0001A1CA24B1A605EE1A04B00221A605AE17E
:1034B0009C4B1B78082B1ED19B4B16221A709A4BE3
:1034C00001225A70994B1B68FF218905181CFCF7D3
:1034D000CDFE031E0BD0954B1B68FF218905181CE0
:1034E000FDF796FC031C1A1C904B1A603BE18F4BB6
:1034F00000221A6037E18B4B1B78092B1ED18A4BB7
:1035000014221A70884B17225A70884B1B68FE21B0
:103510008905181CFCF7AAFE031E0BD0834B1B6801
:10352000FE218905181CFDF773FC031C1A1C7F4B38
:103530001A6018E17D4B00221A6014E1794B1B7868
:103540000A2B31D1784B15221A70774B01225A7011
:10355000764B1B687749181CFCF774FE031E0BD0D2
:10356000724B1B68FE218905181CFCF7C5FF031C64
:103570001A1C6E4B1A60F6E06C4B1B686E49181CE7
:10358000FCF774FE031E0BD0684B1B68FC218905F9
:10359000181CFDF73DFC031C1A1C644B1A60E2E08A
:1035A000624B644A1A60DEE05E4B1B780B2B31D114
:1035B0005D4B15221A705C4B02225A705B4B1B68E4
:1035C0005E49181CFCF73EFE031E0BD0574B1B68D0
:1035D0008021C905181CFCF78FFF031C1A1C534BD4
:1035E0001A60C0E0514B1B685549181CFCF73EFEA1
:1035F000031E0BD04D4B1B68FC218905181CFDF7E1
:1036000007FC031C1A1C494B1A60ACE0474B4B4AA1
:103610001A60A8E0434B1B780C2B30D1424B15228B
:103620001A70414B03225A70404B1B684549181CC5
:10363000FCF708FE031E0AD03C4B1B684249181CCD
:10364000FCF75AFF031C1A1C384B1A608BE0374BEF
:103650001B683E49181CFCF709FE031E0BD0334BB8
:103660001B68FC218905181CFDF7D2FB031C1A1CE2
:103670002E4B1A6077E02D4B324A1A6073E0294BCB
:103680001B780D2B31D1284B15221A70264B0422A2
:103690005A70264B1B682E49181CFCF7D3FD031EDD
:1036A0000BD0224B1B688121C905181CFCF724FF95
:1036B000031C1A1C1D4B1A6055E01C4B1B68254946
:1036C000181CFCF7D3FD031E0BD0184B1B68FC2104
:1036D0008905181CFDF79CFB031C1A1C134B1A6070
:1036E00041E0124B1A4A1A603DE00E4B1B780E2B3C
:1036F00039D10D4B15221A700B4B05225A700B4B0A
:103700001B681549181CFCF79DFD031E28D0074BAC
:103710001B681249181CFCF7EFFE031C1A1C034B14
:103720001A6020E00303002020000020FC0200209B
:103730000000204000004843008048430000C84388
:103740000040C843000016440000404000201644DA
:10375000000048440020484400C078440000A040D5
:103760004A4B4B4A1A60494B1B684A49181CFDF7E3
:1037700029FA031C4649181CFDF75CF8031C181CA9
:10378000FCF7D6FD03009AB2434B1A80434B1B78DB
:10379000012B32D13D4B1B68181CFDF7E7FC0200E2
:1037A0003F4B5A633E4B00229A633B4B1B8864217C
:1037B0001800FCF7A9FC03009BB2DAB2394B9A70EF
:1037C000354B1B880A211800FCF79EFC03009BB2B6
:1037D0000A211800FCF71EFD0B009BB2DAB2314B38
:1037E000DA702D4B1B880A211800FCF713FD0B0023
:1037F0009BB2DAB22B4B1A7145E0284B1B78022B97
:1038000032D1274B00225A63204B1B68181CFDF74E
:10381000ADFC0200224B9A631F4B1B8864211800E9
:10382000FCF772FC03009BB2DAB21E4B9A701A4B83
:103830001B880A211800FCF767FC03009BB20A21D1
:103840001800FCF7E7FC0B009BB2DAB2154BDA70FC
:10385000114B1B880A211800FCF7DCFC0B009BB203
:10386000DAB2104B1A710EE00D4B00225A630C4B6A
:1038700000229A630B4B00229A700A4B0022DA70E6
:10388000084B00221A71C046BD4680BDFC020020D4
:1038900000007A44000016430403002002030020C5
:1038A000001401402000002080B582B000AF786095
:1038B000396080235B005D480122190001F0B5FBEF
:1038C00080239B0059480122190001F0AEFB8023A0
:1038D000DB0056480122190001F0A7FB80231B01E1
:1038E00052480122190001F0A0FB80235B014F48E0
:1038F0000122190001F099FB4D4A3B68D3181B784F
:103900007F229343DBB249481A00012101F08DFB6D
:10391000474A3B68D3181B7840221340DBB2434828
:103920001A00022101F081FB414A3B68D3181B7841
:1039300020221340DBB23D481A00042101F075FB40
:103940003B4A3B68D3181B7810221340DBB2374840
:103950001A00082101F069FB354A3B68D3181B782F
:1039600008221340DBB231481A00102101F05DFB40
:103970002F4A3B68D3181B7804221340DBB22B4834
:103980001A00202101F051FB294A3B68D3181B780B
:1039900002221340DBB225481A00402101F045FB0A
:1039A000234A3B68D3181B7801221340DBB21F481F
:1039B0001A00802101F039FB7B68002B07D180239E
:1039C0005B001A480022190001F02FFB2AE07B68F7
:1039D000012B07D180239B0014480022190001F01D
:1039E00024FB1FE07B68022B07D18023DB000F48FC
:1039F0000022190001F019FB14E07B68032B07D1AA
:103A000080231B0109480022190001F00EFB09E088
:103A10007B68042B06D180235B0104480022190037
:103A200001F003FBC046BD4602B080BD0008005057
:103A30000400002080B500AF0C4B1B6818000B4B36
:103A40001B680B4AD35C1900FFF72EFF074B1B685E
:103A50005A1C064B1A60054B1B68052B02D9034BF9
:103A600000221A60C046BD4680BDC0460803002043
:103A70002000002080B500AF1049114B0222180031
:103A800000F0C4FB0D4B1B680E4A53430E4918004F
:103A9000FCF73AFB03001A000C4B1A60074B5B68FB
:103AA000084A534308491800FCF72EFB03001A008C
:103AB000064B5A60C046BD4680BDC046C8020020C5
:103AC00064010020E40C0000FF0F0000D002002081
:103AD00080B500AF72B6C046FEE7000080B500AF0B
:103AE000074B5A6B064B01210A435A63044B9A6BEE
:103AF000034B802149050A439A63C046BD4680BDF9
:103B00000010024090B589B000AF78600C243B19DA
:103B1000180014231A00002108F06CFE7B681B6853
:103B20002A4A93424DD12A4B5A6B294B8021890056
:103B30000A435A63264BDA6A254B01210A43DA62AB
:103B4000234BDB6A01221340BB60BB683B19032295
:103B50001A603B1903225A603B1900229A603A19F5
:103B6000A023DB051100180001F0CCF8194B1A4A0C
:103B70001A60184B00225A60164B00229A60154BAF
:103B80000022DA60134B80221A61124B80229200CD
:103B90005A61104B802212019A610E4B0022DA61A9
:103BA0000C4B00221A620B4B180000F0F1FE031EB2
:103BB00001D0FFF78DFF7B68064ADA64054B7A680F
:103BC0009A62C046BD4609B090BDC046002401407F
:103BD00000100240C00100200800024080B582B001
:103BE00000AF78607B681B68164A93420ED1164B73
:103BF0009A6B154B10210A439A6300220021112071
:103C000000F094FE112000F0A6FE16E07B681B6811
:103C10000E4A934206D10C4B5A6B0B4B04210A43BC
:103C20005A630AE07B681B68094A934205D1064B38
:103C30005A6B054B20210A435A63C046BD4602B069
:103C400080BDC04600100040001002400008014046
:103C50000014014090B58BB000AF786014243B197C
:103C6000180014231A00002108F0C4FD7B681B68AB
:103C7000284A934223D1284BDA6A274B02210A4370
:103C8000DA62254BDB6A022213403B613B693B1938
:103C9000802292011A6021007B1802225A607B1850
:103CA00000229A607B180022DA607B1806221A61D3
:103CB0007B181A4A1900100001F024F826E07B68EE
:103CC0001B68174A934221D1134BDA6A124B022127
:103CD0000A43DA62104BDB6A02221340FB60FB6886
:103CE00014217B1830221A607B1802225A607B183C
:103CF00000229A607B180022DA607B1804221A6185
:103D00007B18064A1900100000F0FCFFC046BD46B3
:103D10000BB090BD000801400010024000040050AC
:103D20000014014080B500AFFEE780B500AFFEE7AC
:103D300080B500AFC046BD4680BD80B500AFC0466F
:103D4000BD4680BD80B500AF00F0ACF8C046BD46B2
:103D500080BD000080B500AF034B180000F0F6FEF8
:103D6000C046BD4680BDC046C001002080B500AF42
:103D7000034B180004F046F8C046BD4680BDC0465F
:103D80000802002080B500AF034B180001F0A0FA34
:103D9000C046BD4680BDC046D807002080B500AFF4
:103DA000C046BD4680BD00000D4885460D480E4901
:103DB0000E4A002302E0D458C4500433C4188C4285
:103DC000F9D30B4A0B4C002301E013600432A242EA
:103DD000FBD3FFF7E3FF08F0E9FCFDF711FAFEE77C
:103DE000002000200000002048010020B0C9000889
:103DF00048010020E00A0020FEE7000080B582B004
:103E000000AFFB1D00221A700B4B1A680A4B4021B1
:103E10000A431A60032000F011F8031E03D0FB1DB3
:103E200001221A7001E0FFF759FEFB1D1B781800F4
:103E3000BD4602B080BDC0460020024090B583B0B0
:103E400000AF7860144B1C68144B1B781900FA23E0
:103E50009800FCF759F9030019002000FCF754F909
:103E60000300180000F087FD031E01D001230FE0BE
:103E70007B68032B0BD8796801235B420022180072
:103E800000F054FD064B7A681A60002300E001231D
:103E90001800BD4603B090BD28000020300000206F
:103EA0002C00002080B500AF054B1B781A00054B95
:103EB0001B68D218034B1A60C046BD4680BDC04681
:103EC000300000200C03002080B500AF024B1B68BF
:103ED0001800BD4680BDC0460C03002080B584B0EC
:103EE00000AF7860FFF7F0FF0300BB607B68FB600A
:103EF000FB68013305D00A4B1B781A00FB689B183E
:103F0000FB60C046FFF7E0FF0200BB68D31AFA6807
:103F10009A42F7D8C046C046BD4604B080BDC046F0
:103F20003000002080B582B000AF78607B68002B45
:103F300001D1012359E17B685B6D002B0AD17B68BD
:103F400000229A657B685022002199547B681800F2
:103F5000FFF7D8FD7B685B6D10221340102B05D056
:103F60007B681B689B68042213400BD07B685B6DE9
:103F700010221A437B685A657B68502200219954AD
:103F8000012332E17B685B6D9A4A134002221A4397
:103F90007B685A657B681B689B6803221340012B72
:103FA00008D17B681B681B6801221340012B01D1DB
:103FB000012300E00023002B49D17B685A68C0230D
:103FC0001B069A420BD07B685A688023DB059A4215
:103FD00005D07B685A6880231B069A4211D17B6802
:103FE0001B681A697B681B68920092081A617B68DB
:103FF0001B6819697B685A687B681B680A431A61E9
:1040000014E07B681B681A697B681B689200920841
:104010001A61794B1A68784B78490A401A60764BD6
:1040200019687B685A68744B0A431A607B681B687E
:10403000DA687B681B6818218A43DA607B681B6832
:10404000D9687B689A687B681B680A43DA606A4BA8
:104050001A68694B6A490A401A60674B19687B689D
:104060005B6B5A06644B0A431A607B681B689A684C
:1040700080235B05134008D17B681B689A687B68C6
:104080001B68802149050A439A607B681B68DA68CF
:104090007B681B685B490A40DA607B681B68D968EB
:1040A0007B68DA687B681B69022B01D1042300E07E
:1040B00000231A437B6820201B5C5B031A437B6848
:1040C0002C201B5C5B001A437B681B6B1A437B68CC
:1040D0009B699B031A437B68DB69DB031A437B689C
:1040E0001B680A43DA607B685A6AC223FF339A422C
:1040F0000BD07B681B68D9687B685A6A7B689B6AAF
:104100001A437B681B680A43DA607B6821229B5C48
:10411000012B1AD17B6820229B5C002B09D17B6884
:104120001B68DA687B681B68802149020A43DA60F1
:104130000BE07B685B6D20221A437B685A657B68C5
:104140009B6D01221A437B689A657B68DB6B012BB0
:104150001FD17B681B681A697B681B682A490A4063
:104160001A617B681B6819697B681A6C7B685B6CD9
:104170001A437B689B6C1A437B681B680A431A616D
:104180007B681B681A697B681B6801210A431A61F6
:104190000EE07B681B681B6901221340012B07D1CD
:1041A0007B681B681A697B681B6801218A431A6156
:1041B0007B681B685A697B681B6807218A435A61C0
:1041C0007B681B6859697B689A6B7B681B680A432C
:1041D0005A617B6800229A657B685B6D032293437A
:1041E00001221A437B685A6500231800BD4602B0BD
:1041F00080BDC046FDFEFFFF08270140FFFFC3FF53
:10420000FFFFFFFD1902FEFF03FCFFFF90B587B023
:1042100000AFF860B9607A601723FB1800221A70AB
:10422000FB681B689B68042213405ED1FB68502228
:104230009B5C012B01D102235EE0FB68502201212F
:104240009954FB681B68DA68FB681B6801210A4304
:10425000DA60FB68DB69012B07D01723FC18FB68C9
:10426000180000F00DF9030023701723FB181B78CA
:10427000002B3ED1FB685B6D214A13408022520027
:104280001A43FB685A65FB6800229A65FB68502256
:1042900000219954FB68DB6C1A4ADA62FB68DB6C1C
:1042A000194A1A63FB68DB6C184A5A63FB681B687F
:1042B0001C221A60FB681B685A68FB681B68102187
:1042C0000A435A60FB68D86CFB681B6840331900CE
:1042D000BA687B6800F0D4FBFB681B689A68FB68CF
:1042E0001B6804210A439A6003E01723FB1802228B
:1042F0001A701723FB181B781800BD4607B090BD35
:10430000FEF0FFFF5145000805460008234600085F
:1043100080B582B000AF7860C046BD4602B080BDB7
:1043200080B582B000AF7860C046BD4602B080BDA7
:1043300080B582B000AF7860C046BD4602B080BD97
:1043400080B582B000AF786039607B6850229B5C9A
:10435000012B01D1022385E07B6850220121995471
:104360007B681B689B68042213400BD07B685B6DE5
:1043700020221A437B685A657B6850220021995499
:1043800001236FE03B685B68384A934235D07B6815
:104390001B68996A3B681B685B035A0B7B681B6848
:1043A0000A439A623B681A688023DB02134009D0F3
:1043B0002F4B1A682E4B802109040A431A600A20E9
:1043C00000F04AF93B681A6880239B02134006D02C
:1043D000274B1A68264B8021C9030A431A603B68A1
:1043E0001A6880235B02134037D0214B1A68204B98
:1043F000802149040A431A602FE07B681B689A6A8F
:104400003B681B685B035B0BD9437B681B680A40F6
:104410009A623B681A688023DB02134005D0144B74
:104420001A68134B13490A401A603B681A688023C4
:104430009B02134005D00E4B1A680D4B0E490A40E3
:104440001A603B681A6880235B02134005D0084B52
:104450001A68074B09490A401A607B6850220021FC
:10446000995400231800BD4602B080BD0110000021
:1044700008270140FFFF7FFFFFFFBFFFFFFFFFFE99
:1044800080B584B000AF78600023FB607B681B6858
:104490009B6803221340012B08D17B681B681B68B3
:1044A00001221340012B01D1012300E00023002B46
:1044B00046D17B681B689B68244A13400DD07B68FB
:1044C0005B6D10221A437B685A657B689B6D0122E5
:1044D0001A437B689A65012333E07B681B689A68FE
:1044E0007B681B6801210A439A60012000F0B4F840
:1044F000FFF7EAFC0300FB601BE0FFF7E5FC0200AE
:10450000FB68D31A0A2B14D97B681B681B6801222D
:104510001340012B0DD07B685B6D10221A437B6822
:104520005A657B689B6D01221A437B689A6501235B
:1045300007E07B681B681B6801221340012BDCD15C
:1045400000231800BD4604B080BDC046170000809F
:1045500080B584B000AF78607B689B6AFB60FB68C5
:104560005B6D5022134041D1FB685B6D802292004D
:104570001A43FB685A65FB681B68DA68C0231B0195
:1045800013402ED1FB6820229B5C002B29D1FB68B5
:104590001B681B6808221340082B22D1FB681B688C
:1045A0009B680422134010D1FB681B685A68FB68A3
:1045B0001B680C218A435A60FB685B6D104A1340EC
:1045C00001221A43FB685A650BE0FB685B6D2022F1
:1045D0001A43FB685A65FB689B6D01221A43FB680E
:1045E0009A65FB681800FFF793FE05E0FB68DB6C3B
:1045F0005B6B7A6810009847C046BD4604B080BD2A
:10460000FEFEFFFF80B584B000AF78607B689B6AD8
:10461000FB60FB681800FFF783FEC046BD4604B090
:1046200080BD80B584B000AF78607B689B6AFB601A
:10463000FB685B6D40221A43FB685A65FB689B6D03
:1046400004221A43FB689A65FB681800FFF770FEA6
:10465000C046BD4604B080BD80B584B000AF786070
:104660000B4B1B680B491800FBF74EFD03001A00AB
:104670007B685343FB6002E0FB68013BFB60FB6827
:10468000002BF9D1C046C046BD4604B080BDC0462F
:104690002800002040420F0080B586B000AF78604F
:1046A00039601723FB1800221A7000233B61002396
:1046B000FB607B6850229B5C012B01D1022383E0CD
:1046C0007B685022012199547B681B689B680322F8
:1046D0001340012B08D17B681B681B680122134023
:1046E000012B01D1012300E00023002B5BD17B686B
:1046F0005B6D374A134002221A437B685A657B6818
:104700001B68DB6803221340FB607B681B68DA6868
:104710007B681B6803218A43DA607B681B689A68A0
:104720007B681B68802109060A439A60FFF7CCFB6F
:1047300003003B611DE0FFF7C7FB02003B69D31A92
:104740000A2B16D97B681B689B68DB0FDA0780236E
:104750001B069A420DD17B685B6D12229343102297
:104760001A437B685A657B685022002199540123C3
:104770002AE07B681B689B68DB0FDA0780231B0637
:104780009A42D8D07B681B68D9687B681B68FA6836
:104790000A43DA607B685B6D0322934301221A436C
:1047A0007B685A6509E07B685B6D20221A437B6851
:1047B0005A651723FB1801221A707B6850220021CA
:1047C00099541723FB181B781800BD4606B080BD0E
:1047D000FDFEFFFF80B582B000AF0200FB1D1A7026
:1047E000FB1D1B787F2B09D8FB1D1B781A001F238C
:1047F0001A40044B012191400A001A60C046BD4690
:1048000002B080BD00E100E090B583B000AF0200CF
:104810003960FB1D1A70FB1D1B787F2B28D82F4A8F
:10482000FB1D1B785BB29B08C0339B009B58FA1D95
:104830001278110003220A40D200FF2191400A00A1
:10484000D2431A4011003B689B01FF221A40FB1D16
:104850001B78180003230340DB009A401F48FB1D10
:104860001B785BB29B080A43C0339B001A5031E0AF
:104870001B4AFB1D1B7819000F230B40083B9B08AC
:1048800006339B00D31804331B68FA1D12781100FD
:1048900003220A40D200FF2191400A00D2431A406D
:1048A00011003B689B01FF221A40FB1D1B7818007A
:1048B00003230340DB009A400948FB1D1B781C00C2
:1048C0000F232340083B9B080A4306339B00C31871
:1048D00004331A60C046BD4603B090BD00E100E05D
:1048E00000ED00E080B582B000AF78607B685A1EB2
:1048F00080235B049A4201D3012310E00A4B7A68BB
:10490000013A5A6001235B4203211800FFF77CFF44
:10491000054B00229A60044B07221A6000231800FE
:10492000BD4602B080BDC04610E000E080B584B056
:1049300000AFB9607A600F217B18021C1A70BA6848
:104940007B181B785BB211001800FFF75DFFC046B3
:10495000BD4604B080BD80B582B000AF0200FB1D33
:104960001A70FB1D1B785BB21800FFF733FFC046BF
:10497000BD4602B080BD80B582B000AF78607B6874
:104980001800FFF7AFFF03001800BD4602B080BD5E
:1049900080B584B000AF78607B68002B01D1012323
:1049A00061E07B681B68324A944663441421180016
:1049B000FBF7AAFB03009A007B685A647B682D4AC8
:1049C0001A647B682522022199547B681B681B6846
:1049D000FB60FB68284A1340FB607B689A687B6831
:1049E000DB681A437B681B691A437B685B691A435F
:1049F0007B689B691A437B68DB691A437B681B6A87
:104A00001343FA681343FB607B681B68FA681A60FB
:104A10007B689A688023DB019A4218D0174B1A688A
:104A20007B685B6C1C210B400F2199400B00D94324
:104A3000124B0A401A60114B19687B685A687B68F0
:104A40005B6C1C2003409A400C4B0A431A607B6845
:104A50000022DA637B682522012199547B68242295
:104A60000021995400231800BD4604B080BDC04603
:104A7000F8FFFDBF000002400F80FFFFA8000240CA
:104A800080B586B000AFF860B9607A603B601723EC
:104A9000FB1800221A70FB6824229B5C012B01D1B9
:104AA00002234FE0FB68242201219954FB68252250
:104AB0009B5CDBB2012B3AD1FB6825220221995481
:104AC000FB680022DA63FB681B681A68FB681B68D6
:104AD00001218A431A603B687A68B968F86800F077
:104AE000E3F8FB681B6B002B08D0FB681B681A6897
:104AF000FB681B680E210A431A600FE0FB681B6805
:104B00001A68FB681B6804218A431A60FB681B68EB
:104B10001A68FB681B680A210A431A60FB681B6855
:104B20001A68FB681B6801210A431A6007E0FB68EA
:104B30002422002199541723FB1802221A701723EC
:104B4000FB181B781800BD4606B080BD80B584B048
:104B500000AF78607B681B6C1B68FB607B681B6820
:104B60001B68BB607B685B6C1C22134004229A406C
:104B70001300FA68134026D0BB680422134022D0E9
:104B80007B681B681B682022134007D17B681B6869
:104B90001A687B681B6804218A431A607B685B6C17
:104BA0001C221A407B681B6C042191400A005A6049
:104BB0007B681B6B002B00D171E07B681B6B7A68F4
:104BC000100098476BE07B685B6C1C22134002224C
:104BD0009A401300FA6813402DD0BB68022213409C
:104BE00029D07B681B681B68202213400BD17B688F
:104BF0001B681A687B681B680A218A431A607B68F5
:104C00002522012199547B685B6C1C221A407B6829
:104C10001B6C022191400A005A607B68242200210B
:104C200099547B68DB6A002B39D07B68DB6A7A6831
:104C30001000984733E07B685B6C1C22134008220D
:104C40009A401300FA6813402AD0BB680822134028
:104C500026D07B681B681A687B681B680E218A4314
:104C60001A607B685B6C1C221A407B681B6C0121FC
:104C700091400A005A607B680122DA637B68252232
:104C8000012199547B682422002199547B685B6B35
:104C9000002B05D07B685B6B7A6810009847C04694
:104CA000C046BD4604B080BD80B584B000AFF8609A
:104CB000B9607A603B60FB685B6C1C221A40FB6841
:104CC0001B6C012191400A005A60FB681B683A681E
:104CD0005A60FB689B68102B08D1FB681B687A68D8
:104CE0009A60FB681B68BA68DA6007E0FB681B68BB
:104CF000BA689A60FB681B687A68DA60C046BD468D
:104D000004B080BD80B586B000AF78603960002304
:104D10007B610023FB6000233B614FE13B681B6824
:104D200001217A6991400A001340FB60FB68002B67
:104D300000D140E13B685B6803221340012B05D0A2
:104D40003B685B6803221340022B30D17B689B6871
:104D50003B617B695B0003229A401300DA433B69A5
:104D600013403B613B68DA687B695B009A40130043
:104D70003A6913433B617B683A699A607B685B6878
:104D80003B6101227B699A401300DA433B6913407F
:104D90003B613B685B681B0901221A407B699A40B2
:104DA00013003A6913433B617B683A695A603B6878
:104DB0005B6803221340032B17D07B68DB683B61E1
:104DC0007B695B0003229A401300DA433B6913407E
:104DD0003B613B689A687B695B009A4013003A69C3
:104DE00013433B617B683A69DA603B685B68032286
:104DF0001340022B23D17B69DA087B6808329200CA
:104E0000D3583B617B69072213409B000F229A40D5
:104E10001300DA433B6913403B613B681A697B69C5
:104E200007210B409B009A4013003A6913433B61F2
:104E30007B69DA087B68083292003969D1507B6857
:104E40001B683B617B695B0003229A401300DA43D5
:104E50003B6913403B613B685B6803221A407B69F6
:104E60005B009A4013003A6913433B617B683A69DF
:104E70001A603B685A68C0239B02134000D19AE035
:104E8000544B5A6B534B01210A435A63524A7B6974
:104E90009B0802339B009B583B617B6903221340B4
:104EA0009B000F229A401300DA433B6913403B6199
:104EB0007A68A023DB059A4219D07B68474A93425F
:104EC00013D07B68464A93420DD07B68454A934293
:104ED00007D07B68444A934201D1052308E00623AA
:104EE00006E0032304E0022302E0012300E00023A4
:104EF0007A6903210A40920093403A6913433B6167
:104F000035497B699B0802339B003A695A50374BFD
:104F10001B683B61FB68DA433B6913403B613B68BC
:104F20005A6880235B02134003D03A69FB6813433D
:104F30003B612E4B3A691A602C4B5B683B61FB6806
:104F4000DA433B6913403B613B685A6880239B020C
:104F5000134003D03A69FB6813433B61234B3A6922
:104F60005A60224B9B683B61FB68DA433B69134004
:104F70003B613B685A6880235B03134003D03A6966
:104F8000FB6813433B61194B3A699A60174BDB6826
:104F90003B61FB68DA433B6913403B613B685A68FD
:104FA00080239B03134003D03A69FB6813433B61A2
:104FB0000E4B3A69DA607B6901337B613B681A68A2
:104FC0007B69DA40131E00D0A8E6C046C046BD4645
:104FD00006B080BD001002400000014000040050F7
:104FE00000080050000C0050001C0050000401405C
:104FF00080B584B000AF78600A00BB1C1A807B6863
:105000001B69BA1C1288134004D00F23FB1801221D
:105010001A7003E00F23FB1800221A700F23FB18ED
:105020001B781800BD4604B080BD80B582B000AFCB
:10503000786008001100BB1C021C1A807B1C0A1C33
:105040001A707B1C1B78002B04D0BB1C1A887B6851
:105050009A6103E0BB1C1A887B689A62C046BD4611
:1050600002B080BDF0B58BB006AF78607B68002BD6
:1050700001D10123FFE07B68814A9B5CDBB2002BFE
:1050800008D17A68AA239B000021D1547B681800BC
:1050900007F060F87B687A4A032199547B681B68A3
:1050A000180003F0D5FB0F23FB1800221A7058E0FC
:1050B0000F203B181B7879685A1C13009B009B1823
:1050C000DB00CB18013301221A703B181B7879687A
:1050D0005A1C13009B009B18DB003A1812785A5494
:1050E00004003B181A783B191B7898B279681300B2
:1050F0009B009B18DB00CB183633021C1A803B192F
:105100001B7879685A1C13009B009B18DB00CB1896
:10511000033300221A703B191A78796813009B0038
:105120009B18DB00CB18383300221A603B191A7821
:10513000796813009B009B18DB00CB183C330022DE
:105140001A603B191A78796813009B009B18DB00E2
:10515000CB18403300221A603B191A783B190132F0
:105160001A700F217B181A787B685B689A429FD36C
:105170007B1800221A7056E00F243B191A787868C1
:105180006A23FF33190013009B009B18DB00C31830
:105190005B1800221A703B191A787868B4235900FA
:1051A00013009B009B18DB00C3185B183A19127898
:1051B0001A703B191A7878686C23FF3319001300B2
:1051C0009B009B18DB00C3185B1800221A703B1968
:1051D0001A787868BC23590013009B009B18DB00E9
:1051E000C3185B1800221A603B191A787868BE232E
:1051F000590013009B009B18DB00C3185B180022AA
:105200001A603B191A787868C023590013009B0074
:105210009B18DB00C3185B1800221A603B191A7830
:105220003B1901321A700F23FB181A787B685B68F0
:105230009A42A1D37B6818687B686A4611001A00FD
:10524000103270CA70C130CA30C159689A68DB68C0
:1052500003F018FB7B682422002199547B68084ADC
:10526000012199547B68DB69012B03D17B6818000D
:1052700001F01CFD00231800BD4605B0F0BDC0467E
:10528000A902000080B582B000AF78607A68AA23D6
:105290009B00D35C012B01D1022314E07A68AA237E
:1052A0009B000121D1547B681B68180003F0BAFAF7
:1052B0007B681B68180005F011FA7A68AA239B0026
:1052C0000021D15400231800BD4602B080BD00006B
:1052D00080B582B000AF78607B681B68180005F06D
:1052E00013FA020080231B021A4080231B029A42F9
:1052F00003D17B68180000F0A3FB7B681B681800D3
:1053000005F002FA02008023DB001A408023DB0054
:105310009A4214D17B681B6844229B5A9AB27B68DC
:105320001B68A2490A4091B2442299527B68180036
:1053300006F093FF7B680021180000F045F97B68B8
:105340001B68180005F0E0F902008023DB011A4019
:105350008023DB019A420BD17B681B6844229B5A55
:105360009AB27B681B6892490A4091B244229952D2
:105370007B681B68180005F0C7F9020080239B01B9
:105380001A4080239B019A420BD17B681B68442200
:105390009B5A9AB27B681B6886490A4091B24422A4
:1053A00099527B681B68180005F0AEF90200802353
:1053B0005B011A4080235B019A4237D17B681B68EE
:1053C00040229B5A9AB27B681B6804218A4391B29F
:1053D000402299527B681B6840229B5A9AB27B6894
:1053E0001B6808218A4391B2402299527A68B823F7
:1053F0009B00D35C012B09D17A68B8239B00002164
:10540000D1547B680021180001F07AFC7B681800F9
:1054100006F064FF7B681B6844229B5A9AB27B6843
:105420001B6865490A4091B2442299527B681B6807
:10543000180005F069F9020080231B011A4080233F
:105440001B019A4227D17B681B6840229B5A9AB263
:105450007B681B6808210A4391B2402299527B68FD
:105460001B6844229B5A9AB27B681B6853490A40C6
:1054700091B2442299527B681B6840229B5A9AB28F
:105480007B681B6804210A4391B2402299527B68D1
:10549000180006F007FF7B681B68180005F034F958
:1054A000030080221340802B45D17B681B68442277
:1054B0009B5A9AB27B681B6880218A4391B244222E
:1054C00099527A68B8239B00D35C002B2FD17B685C
:1054D0001B6840229B5A9AB27B681B6804210A43CE
:1054E00091B2402299527B681B6840229B5A9AB223
:1054F0007B681B6808210A4391B2402299527A685E
:10550000B8239B000121D1547B681B6854229B5A0D
:105510009BB29B083C22134019007A68B9239B0078
:10552000D1507B680121180001F0EAFB03E07B68A1
:10553000180006F0B7FE7B681B68180005F0E4F859
:10554000020080239B001A4080239B009A420FD1C7
:105550007B681B6844229B5A9AB27B681B68184977
:105560000A4091B2442299527B68180006F066FE08
:105570007B681B68180005F0C7F8020080235B00F9
:105580001A4080235B009A420BD17B681B6844223F
:105590009B5A9AB27B681B680A490A4091B244221E
:1055A0009952C046BD4602B080BDC046FFFBFFFF1A
:1055B000FFBFFFFFFFDFFFFFFFEFFFFFFFF7FFFF73
:1055C000FFFDFFFFFFFEFFFF80B582B000AF7860F8
:1055D0000A00FB1C1A707A68AA239B00D35C012B7B
:1055E00001D1022317E07A68AA239B000121D1543C
:1055F0007B68FA1C242112785A547B681A68FB1CB9
:105600001B781900100005F055F87A68AA239B0052
:105610000021D15400231800BD4602B080BD90B5D2
:1056200085B000AF78600C0010001900FB1C221C34
:105630001A703B00021C1A80BB1C0A1C1A700B2338
:10564000FB1800221A70FB1C1B785BB2002B0FDAD0
:10565000FB1C1B78072213405A1C13009B009B184D
:10566000DB007A68D318FB60FB6801225A700FE0F8
:10567000FB1C1B7807221A4013009B009B18DB00C1
:105680006933FF337A68D318FB60FB6800225A70D5
:10569000FB1C1B7807221340DAB2FB681A703B0030
:1056A0001A88FB681A61FB68BA1C1278DA70FB680A
:1056B0005B78002B04D0FB681B789AB2FB68DA8118
:1056C000BB1C1B78022B02D1FB6800221A717A687E
:1056D000AA239B00D35C012B01D1022313E07A683B
:1056E000AA239B000121D1547B681B68FA68110032
:1056F000180003F0EFF87A68AA239B000021D15428
:105700000B23FB181B781800BD4605B090BD80B573
:1057100084B000AF78600A00FB1C1A70FB1C1B7879
:105720005BB2002B0FDAFB1C1B78072213405A1CBC
:1057300013009B009B18DB007A68D318FB60FB68A2
:1057400001225A700FE0FB1C1B7807221A4013003D
:105750009B009B18DB006933FF337A68D318FB602A
:10576000FB6800225A70FB1C1B7807221340DAB238
:10577000FB681A707A68AA239B00D35C012B01D1C5
:10578000022311E07A68AA239B000121D1547B688F
:105790001B68FA681100180003F010FC7A68AA234D
:1057A0009B000021D15400231800BD4604B080BDE9
:1057B00080B586B000AFF8607A603B600B203B1884
:1057C0000A1C1A7001007B181B7807221A4013006C
:1057D0009B009B18DB006933FF33FA68D3187B61A9
:1057E0007B697A685A617B693A689A617B690022B1
:1057F000DA617B6900225A707B181B7807221340FC
:10580000DAB27B691A707B181B780722134007D124
:10581000FB681B687A691100180003F08FFD06E031
:10582000FB681B687A691100180003F087FD0023EC
:105830001800BD4606B080BD80B586B000AFF860E8
:105840007A603B600B203B180A1C1A703B181B78CF
:10585000072213405A1C13009B009B18DB00FA68B8
:10586000D3187B617B697A685A617B693A689A616F
:105870007B692422012199547B693A681A627B6909
:105880000022DA617B6901225A703B181B780722DB
:105890001340DAB27B691A703B181B780722134059
:1058A00007D1FB681B687A691100180003F046FDF8
:1058B00006E0FB681B687A691100180003F03EFDE2
:1058C00000231800BD4606B080BD80B584B000AF8F
:1058D00078600A00FB1C1A70FB1C1B7807221A4018
:1058E0007B685B689A4201D9012346E0FB1C1B7868
:1058F0005BB2002B0FDAFB1C1B78072213405A1CEB
:1059000013009B009B18DB007A68D318FB60FB68D0
:1059100001225A700DE0FB1C1A7813009B009B18A3
:10592000DB006933FF337A68D318FB60FB68002221
:105930005A70FB6801229A70FB1C1B7807221340E7
:10594000DAB2FB681A707A68AA239B00D35C012B39
:1059500001D1022311E07A68AA239B000121D154CE
:105960007B681B68FA681100180004F0A1FD7A68D2
:10597000AA239B000021D15400231800BD4604B087
:1059800080BD80B584B000AF78600A00FB1C1A703F
:10599000FB1C1B780F221A407B685B689A4201D976
:1059A000012348E0FB1C1B785BB2002B0FDAFB1CC9
:1059B0001B78072213405A1C13009B009B18DB0026
:1059C0007A68D318FB60FB6801225A700FE0FB1C59
:1059D0001B7807221A4013009B009B18DB006933D9
:1059E000FF337A68D318FB60FB6800225A70FB68AB
:1059F00000229A70FB1C1B7807221340DAB2FB6866
:105A00001A707A68AA239B00D35C012B01D1022370
:105A100011E07A68AA239B000121D1547B681B689E
:105A2000FA681100180004F093FD7A68AA239B001D
:105A30000021D15400231800BD4604B080BD0000F1
:105A4000B0B596B000AF786000F0D8FB7B681A68FC
:105A500056203B184421525A1A803B181B88DAB250
:105A600055243B190F210A401A703B191B78002B53
:105A700000D079E13B181B881022134054D17B6879
:105A80001B681B889AB20E203B18AF490A401A8047
:105A90007B681B683A181288AC490A4392B21A8094
:105AA0007B682833FB647B681B6850229B5A9BB23F
:105AB0001A00FB6C1B78DB00D2187B681B68D318BC
:105AC000A34A944663441B889B059A0DFB6CDA61DC
:105AD000FB6C5A69FB6CDB69D218FB6C5A617B6802
