:020000040800F2
:10000000002000201D530008214D0008254D000848
:1000100000000000000000000000000000000000E0
:10002000000000000000000000000000294D000852
:1000300000000000000000002D4D0008314D0008B8
:100040006D5300086D5300086D5300086D53000890
:100050006D5300086D5300086D5300086D53000880
:100060006D5300086D5300086D5300086D53000870
:100070006D5300086D530008000000006D53000828
:1000800000000000394D00080000000000000000E2
:100090006D530008000000006D5300086D53000808
:1000A0006D5300086D5300086D5300086D53000830
:1000B0006D5300086D5300086D5300086D53000820
:1000C00010B5064C2378002B07D1054B002B02D02E
:1000D000044800E000BF0123237010BDEC010020A4
:1000E0000000000024BF0008044B10B5002B03D013
:1000F0000349044800E000BF10BDC04600000000F6
:10010000F001002024BF00080023C25C0133002A54
:10011000FBD1581E7047000002B4714649084900DF
:10012000095C49008E4402BC7047C04603B4714666
:10013000490840004900095E49008E4403BC7047ED
:10014000002243088B4274D303098B425FD3030A16
:100150008B4244D3030B8B4228D3030C8B420DD329
:10016000FF22090212BA030C8B4202D312120902B7
:1001700065D0030B8B4219D300E0090AC30B8B42F5
:1001800001D3CB03C01A5241830B8B4201D38B03A3
:10019000C01A5241430B8B4201D34B03C01A524148
:1001A000030B8B4201D30B03C01A5241C30A8B428B
:1001B00001D3CB02C01A5241830A8B4201D38B0276
:1001C000C01A5241430A8B4201D34B02C01A52411A
:1001D000030A8B4201D30B02C01A5241CDD2C3098C
:1001E0008B4201D3CB01C01A524183098B4201D308
:1001F0008B01C01A524143098B4201D34B01C01AF3
:10020000524103098B4201D30B01C01A5241C3086A
:100210008B4201D3CB00C01A524183088B4201D3D9
:100220008B00C01A524143088B4201D34B00C01AC5
:100230005241411A00D20146524110467047FFE731
:1002400001B5002000F0F0F802BDC0460029F7D04B
:1002500076E7704703460B437FD4002243088B4266
:1002600074D303098B425FD3030A8B4244D3030B3D
:100270008B4228D3030C8B420DD3FF22090212BA02
:10028000030C8B4202D31212090265D0030B8B427E
:1002900019D300E0090AC30B8B4201D3CB03C01A68
:1002A0005241830B8B4201D38B03C01A5241430B43
:1002B0008B4201D34B03C01A5241030B8B4201D333
:1002C0000B03C01A5241C30A8B4201D3CB02C01A9E
:1002D0005241830A8B4201D38B02C01A5241430A16
:1002E0008B4201D34B02C01A5241030A8B4201D305
:1002F0000B02C01A5241CDD2C3098B4201D3CB01AC
:10030000C01A524183098B4201D38B01C01A52415A
:1003100043098B4201D34B01C01A524103098B425E
:1003200001D30B01C01A5241C3088B4201D3CB0049
:10033000C01A524183088B4201D38B00C01A52412C
:1003400043088B4201D34B00C01A5241411A00D2DC
:1003500001465241104670475DE0CA0F00D0494245
:10036000031000D34042534000229C4603098B42B5
:100370002DD3030A8B4212D3FC22890112BA030A3D
:100380008B420CD3890192118B4208D389019211BF
:100390008B4204D389013AD0921100E08909C30944
:1003A0008B4201D3CB01C01A524183098B4201D346
:1003B0008B01C01A524143098B4201D34B01C01A31
:1003C000524103098B4201D30B01C01A5241C308A9
:1003D0008B4201D3CB00C01A524183088B4201D318
:1003E0008B00C01A5241D9D243088B4201D34B0033
:1003F000C01A5241411A00D20146634652415B1075
:10040000104601D34042002B00D549427047634655
:100410005B1000D3404201B5002000F005F802BD9A
:100420000029F8D016E770477047C0468446100090
:1004300062468C461900634600E0C0461FB502F0D4
:10044000D3F9002801D40021C8421FBD10B502F025
:1004500017F94042013010BD10B502F0C5F900286F
:1004600001DB002010BD012010BDC04610B502F018
:10047000BBF9002801DD002010BD012010BDC046E1
:1004800010B502F041F9002801DC002010BD012068
:1004900010BDC04610B502F037F9002801DA00207F
:1004A00010BD012010BDC046844608006146FFE72C
:1004B0001FB500F04BFD002801D40021C8421FBD2C
:1004C00010B500F0D3FC4042013010BD10B500F073
:1004D0003DFD002801DB002010BD012010BDC046FD
:1004E00010B500F033FD002801DD002010BD012013
:1004F00010BDC04610B500F0E1FC002801DC002072
:1005000010BD012010BDC04610B500F0D7FC00287A
:1005100001DA002010BD012010BDC046002B11D112
:10052000002A0FD1002900D1002802D00021C943A0
:10053000080007B4024802A14018029003BDC0465B
:10054000E9FEFFFF03B4684601B5029800F0BAF86F
:10055000019B9E4602B00CBC7047C046F0B5CE462B
:100560009946030C9C46130447461B0C1D000E00C5
:1005700061460404240C80B50700100C4B4365430E
:10058000414360432C0CC01824188C46A34203D965
:1005900080235B029846C444494679435643230C62
:1005A0002D042D0C8919634424046019C918C0BC9A
:1005B000B946B046F0BDC0469E2110B5C905041C21
:1005C000FFF7A2FF002803D1201C01F0C5F810BDE1
:1005D0009E21201CC90500F05BFE01F0BDF88023C0
:1005E0001B069C466044F2E770B500220C4B0400E9
:1005F0000D00FFF74FFF002804D12000290003F071
:1006000073F870BD064B00222000290002F040FC68
:1006100003F06AF880231B069C466044F1E7C0465D
:100620000000E04170B50022002304000D00FFF738
:1006300013FF002808D12000290000F00FF8020065
:100640000B001000190070BD80231B06E918200064
:1006500000F004F8002342428B41F2E770B500221B
:100660000B4B0D00040002F02DF9FFF7BDFF060053
:1006700003F0A4F80022074B02F024F902000B005B
:100680002000290002F004FCFFF7AEFF310070BD2E
:100690000000F03D0000F04170B50600080003F0D6
:1006A0005FF80022064B02F00DF90D000400300047
:1006B00003F084F82B00220001F004F970BDC0465D
:1006C0000000F041F0B557464E464546DE46E0B5DF
:1006D00004000D009246994683B08B4230D82DD04D
:1006E0004946504603F076F929000600200003F041
:1006F00071F9331A9846203B34D49B4653465A46E8
:10070000934042461F00534693401E00AF423BD8E1
:10071000AF4200D179E05B46A41BBD41002B00DA5B
:1007200076E0002200230092019301235A46934071
:100730000193012342469340009329E08242CFD99E
:1007400000220023009201930C9B002B01D01C601F
:100750005D600098019903B0F0BCBB46B246A94663
:10076000A046F0BD42469B4620239B1A5246DA40E3
:10077000414613004A468A40170042461F435346EB
:1007800093401E00AF42C3D9002200230092019380
:100790004346002BD8D0FB0772081A4346467B0815
:1007A0000EE0AB4201D1A2420CD8A41A9D41012017
:1007B00024196D410021013E24184D41002E06D020
:1007C000AB42EED9013E24196D41002EF8D10098BC
:1007D00001995B4600196941002B24DB2B005A4626
:1007E0004446D3402A00E2401C005B461500002B23
:1007F0002ADB26009E40330026004746BE403200DA
:10080000801A9941009001919EE7A342BCD882E7EB
:100810004246202300219B1A0022009101920122CE
:10082000DA40019285E7424620239B1A2A00464679
:100830009A402300F340444613432A00E2401C0040
:100840005B461500002BD4DA42462F0020232600F9
:1008500097409B1ADE403B003343CDE7F8B54B028F
:100860005A0A94464A00C90FCE4647468946450073
:1008700046022D0E120E80B59909770AC40FB609EB
:10088000AB1A4C4520D0002B0CDD002A34D10029B6
:100890002AD05A1E012B00D18FE0FF2B00D1CDE0D2
:1008A00013002FE0002B60D0531B002D00D0EEE092
:1008B000002E00D13EE15C1E012B00D16BE1FF2B2D
:1008C00000D1B9E02300E7E0002B00DCA4E0002A1F
:1008D00069D0FF2D00D1B1E08022D20411431B2B3F
:1008E00000DCE9E02B000536F708FF2B00D1A5E07E
:1008F0007A02520AD8B230E0FF2D00D19EE0802269
:10090000D204114301201B2B08DC08002022D84010
:10091000D31A99400B005A1E93411843361A73019B
:1009200000D471E0B601B709380003F035F83B0098
:100930000538834085424DDDB44E2D1A1E405A07BE
:1009400068D00F221340042B64D00436730161D5A4
:10095000681CFE2D54D1FF200022C0051043E4077F
:100960002043C0BCB946B046F8BDFE229046681C84
:100970000200404610426BD1002D00D0DDE0002E79
:1009800000D102E10029B3D08022771AD2041742A5
:1009900000D136E14C468E1B61D00120164230D189
:1009A0000023F708A4E700299ED05A1E012B00D18E
:1009B000CAE0FF2B42D0130091E7711A4B0100D41B
:1009C000D1E08F01BF09380002F0E6FF3B00053897
:1009D000834001252022401B0130121A1E00934043
:1009E000C6405A1E93411E4339D0730700D11BE104
:1009F0000F2300253340042BA7D1012072017CD5A1
:100A0000C0B2B201520AA8E7730703D00F233340E4
:100A1000042B9AD12B0067E7002B23D0531B002D0A
:100A20007BD1002E00D186E05D1E012B00D18BE032
:100A3000FF2B02D02B0075E04C466746002F00D1FB
:100A400089E78022D2033A435202FF20520A84E708
:100A5000771A7B016BD4002F00D065E700240020BB
:100A600000227AE7FE226B1C1A4249D1002D00D0E9
:100A70009FE0002E00D1BAE0002900D1CFE072182B
:100A8000530100D4CDE092010120520A65E7FF2A0C
:100A9000D2D08020C004064301201B2B08DC30008C
:100AA0002024D840E31A9E4033005C1EA341184323
:100AB0004C4615000E1A32E708002022D840D31AFF
:100AC00099400B005A1E93410343F61873019BD5BE
:100AD0000135FF2D00D13EE701234D497208334017
:100AE0000A401A431600530704D00F231340042B67
:100AF00000D02AE7730100D52AE72B00F708F7E6B4
:100B0000FF2B00D127E7711849084A072FD00F2281
:100B10000A40042A2BD00E1DE6E6FF2A8DD0802045
:100B2000C00406431B2B24DD13004E1DDCE64C469F
:100B30008F1BF9E64C460E00D6E6002E49D100295F
:100B400068D067464C467CE77018430174D530493D
:100B500040080140430709D00F230340042B05D070
:100B600002230E1DC0E60123CF08C1E60223CF08F1
:100B7000BEE620253000D840EB1A9E4033005D1EB3
:100B8000AB41034315005E18A0E7002900D165E7DB
:100B90004C466746ACE68F1B7B012ED5BF01BF09D3
:100BA000380002F0F9FE3B00053883404C46013521
:100BB00010E7002E00D140E7002900D141E7802353
:100BC000DB039F4200D23CE79C4500D339E76746F0
:100BD00037E7002900D134E78023DB039F4200D2AE
:100BE0002FE79C4500D32CE74C46674629E70029B0
:100BF00000D134E70023CF087AE64C460123FF08F2
:100C000076E6002F00D129E7FF0871E6FFFFFFFB22
:100C1000FFFFFF7D80220024FF20D2039DE60023FA
:100C200066E60023D70863E60120720100D5E7E6F7
:100C300031000023CF085BE60123C70858E6C04611
:100C4000F0B546464F46D6464502C0B5C30F4700ED
:100C500098460E1C6D0A3F0E5BD0FF2F21D08023DB
:100C6000ED00DB041D43002399469A467F3F740242
:100C70007300640A1B0EF60F002B20D0FF2B43D00D
:100C800080220020E400D20414437F3B4246FF1A36
:100C90004B4672400F2B00D99DE071499B00CB5809
:100CA0009F46002D5AD108239946063B74029A4666
:100CB0007300FF27640A1B0EF60F002BDED1002CF9
:100CC0003BD1012342464946724019430E2918D8A8
:100CD0006448890041588F465346022B00D1B8E042
:100CE000032B6ED042462C00012B40D10020002463
:100CF000C0052043D2071043E0BCBA46B146A8461F
:100D0000F0BDFF200024F3E7002C20D10223FF3F99
:100D1000D8E7002D05D104239946033B00279A46C6
:100D2000A5E7280002F038FE7627431F9D400023E8
:100D30007F4299469A463F1A99E7200002F02CFE1E
:100D4000431F9C4076235B421B1A00209EE703232F
:100D50004A461A4391460320FC3397E70C239946F1
:100D6000093BFF279A4682E703282CD0320038003F
:100D70007F30002847DD630704D00F232340042B76
:100D800000D00434230103D53800374B80301C4099
:100D9000FE28B6DCA401640AC0B2A9E780240022C0
:100DA000FF20E403A4E78023DB031D4201D01C42A3
:100DB0000BD08024E4032C4364024246FF20640AE3
:100DC00096E746462C008023DB031C436402320076
:100DD000FF20640A8CE76D01600185422DD21B2340
:100DE0000024013F0126290064006D00002901DB79
:100DF000854201D32D1A3443013B002BF3D16B1EE6
:100E00009D412C43B3E701231B1A1B2B00DD6DE72B
:100E100021009E37D940BC400B00611E8C4123430A
:100E2000590704D00F211940042900D00433590177
:100E300013D49B0100205C0A5AE71A2301242D1ABF
:100E4000D0E7981E43425841404232000024C0B2CD
:100E50004EE74246FF2000244AE70120002447E7EE
:100E600040BF000880BF0008FFFFFFF770B54200D9
:100E70004E024C0045026D0A120EC30F760A240E74
:100E8000C90FFF2A10D0FF2C0CD00120A2420AD19A
:100E9000B54208D18B420FD0002A04D12800431E4E
:100EA000984100E0012070BD0120FF2CFBD13543AB
:100EB000F9D14B401800F6E70020F4E730B54200C6
:100EC00044024D02C30F4800640A120E6D0A000E60
:100ED000C90FFF2A18D0FF280AD0002A1ED10028E7
:100EE0000AD1002D29D0002C2DD14800013830BD69
:100EF000002D25D1002A01D1002CF6D08B4219D02B
:100F000001205B421843F2E7002C19D1FF28F7D1EA
:100F1000002D15D100208B42F2D1E8E70028EFD058
:100F20008B42EDD18242EBDC04DBAC42E8D80020FE
:100F3000AC42DCD258000138D9E7002CD7D0DFE72B
:100F400002204042D3E78B42DAD1EEE730B54200CF
:100F500044024D02C30F4800640A120E6D0A000ECF
:100F6000C90FFF2A17D0FF280AD0002A1BD100285A
:100F70000AD1002D1DD0002C2DD14800013811E0E0
:100F8000002D0ED1002A01D1002CF6D08B420CD1BD
:100F90005800013806E0002C03D1FF2805D1002DB0
:100FA00015D0022030BD002806D101205B42184335
:100FB000F8E7002CF6D0F8E78B42F6D18242F4DC59
:100FC000E6DBAC42F1D80020AC42EBD2E0E70020F7
:100FD0008B42EAD1E6E78B42E7D1F2E7F0B54F4624
:100FE0004646D6464400C0B546020F1C760A240E7B
:100FF000C50F002C00D1DAE0FF2C74D08023F6005E
:10100000DB041E43002399469A467F3C7B025B0A21
:1010100098467B001B0EFF0F002B74D0FF2B00D1D6
:101020008EE042468021D200C90411437F3B2A0052
:10103000E4184B467A408846D2B20A2B75DC4B4600
:101040000020022B0FDD494601238B40A621C90059
:101050000B4269D1902189000B4200D000E1882128
:10106000194200D0F5E041460904090C4346080046
:10107000350C36041B0C360C704369435E435D43EC
:101080007618030C9B19994203D9802149028C469A
:10109000654400041904000C09188E01701E864175
:1010A0001B0C890E5B190E439B011E431B016CD464
:1010B00023007F33002B00DCB1E0150071070BD05B
:1010C0000F2021003040042806D00436320103D519
:1010D0006E4B1E400B008033FE2B00DDBDE0B201E5
:1010E000520ADBB248E0002E00D092E00823994675
:1010F000063B9A467B025B0A98467B00FF241B0E48
:10110000FF0F002B8AD14246002A64D149460132A2
:10111000114389460A2908DC7D400120EAB20229F0
:1011200091DC1500002227E015005346022B00D168
:1011300093E0032B1AD0012B2CD1002300221BE0BB
:101140004346FF34002B55D003214B460B43190077
:101150000A2B00DC92E00F2B00D08CE08022D2031F
:10116000164203D04346134200D17DE08022D203D1
:1011700032435202520AFF23D805ED071043284399
:10118000E0BCBA46B146A846F0BD0123150071087F
:101190001E400E4323008033611C002B41DD72078B
:1011A00094D00F223240042A00D08EE78EE7002E22
:1011B00005D104239946033B00249A4626E73000D4
:1011C00002F0EAFB7624431F9E40002364429946C6
:1011D0009A46241A1AE7404602F0DEFB4B46241AD0
:1011E000763C0A2BA1DC4346053883407D40984677
:1011F000EAB224E74A46023313432A007A40D2B2C5
:101200000A2B92DC49461500002926D09946022077
:1012100019E70C239946093BFF249A46F6E6150088
:1012200021000122D31A1B2B00DD86E79E313200FC
:101230008E40DA40731E9E413243530704D00F2381
:101240001340042B00D00432530110D50123002297
:1012500092E73D004646824667E7FF2300228BE780
:1012600080220025D20386E73D001A4383E79201DE
:101270000023520A80E73D00464677E72A00012313
:101280007A408B400320D2B2E9E6C046FFFFFFF769
:10129000F8B54746CE46430280B55F0A9B09450034
:1012A0004A009C464B02C40FCE0F2D0E580A120E58
:1012B0009909FF2A6BD001235E40AB1AB4424BD090
:1012C000002B00DCFFE0002A00D188E0FF2D00D1D8
:1012D000EFE08022D204114301201B2B08DC080020
:1012E0002022D840D31A99400B005A1E934118432C
:1012F00063461B1A9C4663465B0100D4CDE06346FF
:101300009F01BF09380002F047FB3B0005388340CE
:10131000854200DCA2E0B74A2D1A1A4094465A07CB
:1013200000D1C3E00F221340042B00D1BEE0042300
:101330009846C44463465B0100D4B7E0681CFE2DA8
:1013400000D0A5E0FF200022C0051043E4072043A1
:10135000C0BCB946B046F8BD002B00DCEBE1002A6A
:1013600046D0FF2D00D1A4E08022D20411431B2BD4
:1013700000DCFBE0052398462B00C4446246D708F6
:10138000FF2B00D195E07A02520AD8B2DCE72B009D
:10139000FF3B9946002918D101235E40B44200D199
:1013A000CAE04B46002B2DD0002D00D03CE1FF239E
:1013B0006446002C00D15FE15D1E012B00D174E179
:1013C0003400FF2B74D02B0003E1B44200D19CE029
:1013D000002B17D0002DEAD0070034006CE0002964
:1013E000CCD05A1E012B2BD0FF2B62D0130073E7F9
:1013F0000029C3D05A1E012B00D11EE1FF2B58D06B
:101400001300B4E7FE226B1C1A420DD1002D60D0F0
:101410006346002B00D020E1002900D028E1802283
:101420000024FF20D2038FE763465F1A7B0100D5BB
:10143000FEE0002F00D065E700240020002283E7B3
:101440006346591A4B0100D419E18F01BF093800D6
:1014500002F0A2FA3B000538834001252022401B00
:101460000130121A19009340C1405A1E934119438A
:101470008C460B1EE1D05B0700D152E10F23002503
:101480000B40042B00D052E701204A0100D492E027
:10149000C0B263469A01520A56E763465B0705D01D
:1014A0000F2362461340042B00D040E72B0065E772
:1014B0000700002F00D145E78022D2033A435202B1
:1014C000FF20520A40E7002B79D1FE226B1C1A4202
:1014D000AAD16346002B00D1F5E0002900D1D1E06C
:1014E0005F1A8023DB041F4200D10EE16246012413
:1014F0008A1A944600203440002A00D124E70120B3
:101500001A42C6D10023D7083DE7002B17D0002D83
:1015100000D0AFE0FF236546002D00D1ADE05E1E98
:10152000012B00D189E0FF2BC2D01B2E00DCABE0E9
:101530004B1D9C46130021E74B46002B70D1FE2229
:101540006B1C1A425ED1002D00D0C3E06346002B15
:1015500000D1D0E0002900D194E00A006244530198
:1015600000D4D8E092010120520AEDE608002022C2
:10157000D840D31A99400B005A1E934103439C4410
:1015800063465B0189D50135FF2D00D1DAE662465D
:1015900001231949134052080A401A431300944684
:1015A0005B0704D00F231340042B00D0BFE6634633
:1015B0005B0100D5C2E66346DF082B00E3E6531B60
:1015C000002D00D1F4E680206446C0040443A44604
:1015D000340001201B2B09DC20256046D840EB1A83
:1015E00065469D402B005D1EAB4118430B1A9C467F
:1015F000150080E6FFFFFFFBFFFFFF7DFE226B1C57
:101600001342A3D0FF2B00D19CE6614449084A074E
:1016100049D00F220A40042A45D00A1D9446ADE65F
:10162000002D00D176E78DE63400FF2000228BE606
:1016300063460124CF1A344064E661444B016DD502
:1016400048084449014043072CD00F230340042B92
:1016500028D00B1D9C46022390E6002900D12BE7E1
:101660008023DB039F4200D226E7984200D323E782
:101670000124344007001FE734008C467EE6012336
:10168000CF0880E600237EE620206546801B85404B
:1016900063462800F340451EA84103439C461500BD
:1016A0008C446DE70223CF086DE60F1B7B0128D524
:1016B000BF01BF09380002F06FF93B0005388340D5
:1016C00034000125CAE6002900D1B5E6012407004F
:1016D000344058E66346002B00D1E9E6002900D1EA
:1016E000EAE68023DB039F4200D2E5E6984200D37E
:1016F000E2E60700E0E6002900D19EE60023CF08DD
:1017000041E634000123FF083DE6002F00D193E6B7
:101710000023FF0837E60023D70834E60123CF086B
:1017200031E680220B00D20401201340114200D088
:10173000AEE6CF0827E6002B00D15FE7561B002D51
:1017400001D13300E7E680236046DB04184384467A
:10175000EBE6C046FFFFFF7D41024200C30F490A8E
:101760000020120E7E2A03DD9D2A02DD094A981808
:101770007047802000040143952A07DC9620821AD6
:10178000D1404842002BF3D10800F1E7963A91404E
:10179000F7E7C046FFFFFF7F70B5002812D0C317E0
:1017A000C5185D40C40F280002F0F6F89E231B1AEE
:1017B000962B0FDC082838D0083885406D026D0A5A
:1017C000D8B202E0002400200025C0052843E40729
:1017D000204370BD992B14DC421F95402A00154907
:1017E000114055071CD00F252A40042A18D0043177
:1017F000CA08490115D59F235202181A550AC0B2CA
:10180000E3E705222900121AD14002001B3295405D
:101810002A00551EAA410A43064911405507E2D144
:10182000CA085202550AD8B2CFE76D026D0A8E304F
:10183000CBE7C046FFFFFFFB10B5041E0DD002F042
:10184000ABF89E231B1A962B0CDC082834D00838E2
:1018500084406402640AD8B201E000200024C0057C
:10186000204310BD992B13DC421F9440144A2240A0
:1018700061071CD00F212140042918D00432D4085C
:10188000520115D59F236402181A640AC0B2E6E714
:10189000020021001B3291400A00511E8A4105219D
:1018A000091ACC401443064A22406107E2D1D40809
:1018B0006402640AD8B2D2E76402640A8E30CEE7CA
:1018C000FFFFFFFBF0B54F464646D646C0B582B097
:1018D000009001910E034C00CD0F710A009E5F0035
:1018E000760F0E43009900920193C90089461903AF
:1018F0007B0D9846019B490ADB0F9C46009B009A92
:101900005B0F0B434146640DD200611A654500D15F
:10191000A6E0002972DD4746002F00D1DDE0CC4F64
:10192000BC4200D19AE10127382917DC80273F0407
:101930003B431F2900DDDDE12027781A1F00874087
:10194000BA461700CF4084463800574607436046E2
:101950008240CB40501E8241F61A17434B46DF1B94
:10196000B94580414042361A330200D4FFE0760286
:10197000760A002E00D13CE1300002F00DF80300A1
:10198000083B20213800CA1AD0409E4002009F40E8
:1019900032439C4200DDA6E1181B0130091A3E00CB
:1019A0008F40C6407B1E9F4113008B4037431F432F
:1019B000C2403B0016000024134300D1DFE17B0747
:1019C00000D132E30F233A003B40042B04D03A1DF0
:1019D000BA42BF417F42F619330200D423E39C4B45
:1019E00001349C4200D1B4E09A4B64051E40640D62
:1019F0007707D20876021743360BACE0002900D1F6
:101A00007EE04146091B002C00D060E134004846CE
:101A1000044300D1C9E14C1E012900D12EE28C4DB6
:101A2000A94200D124E20127382C11DC21001F2912
:101A300000DD0BE2202437004846641AA740C84066
:101A400007434846A040CE40441EA0419B1B07438D
:101A5000D71BBA4292415242654644469E1A83E7DA
:101A6000002900DC9CE04746002F67D11F00174388
:101A700000D1E4E0481E012900D19BE1744FB94236
:101A800000D1EBE001270100382811DC1F2900DD1F
:101A9000C7E12027781A1F00844687401000C840FD
:101AA000074360468240CB40501E8241F6181743E0
:101AB0004F444F45804140423618330257D5644B5E
:101AC00001349C4245D00121624B7A081E403940C6
:101AD0000A43F7071743760871E71F00174300D141
:101AE000ADE04F1EBC46012900D182E1584FB942FA
:101AF00000D190E161460127382900DD2EE718E783
:101B0000554F611C394200D0D0E0310048461F00DB
:101B100001431743002C00D03DE1002900D1BCE176
:101B2000002F00D0BFE14B460021D80877070743BC
:101B3000F00806034C05360B640D0CE0444FBC4224
:101B400000D18BE001273829B2DC80273F043B43DA
:101B50009CE70026002724053443ED072C4338007A
:101B6000210002B0E0BCBA46B146A846F0BD7B07F2
:101B700004D00F233B40042B00D028E7F808344B57
:101B800077070743F0089C4200D04AE23B0003433A
:101B900059D080263603064336032D4C360BDAE740
:101BA000002961D04146091B002C00D1B9E0284C26
:101BB000A04500D1A5E10127382913DC80242404A5
:101BC00026431F2900DDC8E1202437004846641A57
:101BD000A740C84007434846A040CE40441EA0410D
:101BE0009B190743BF189742924152424446D61868
:101BF00063E7380001F0D0FE030018331F2B00DC30
:101C0000BFE63A00083882409C4200DD83E01B1B9F
:101C1000581C1F2800DCB4E117001F3BDF402028C0
:101C200005D040231B1A9A40531E9A4117430024A3
:101C3000002F0AD07B0700D0C4E626009EE74B4663
:101C40000C00D8089BE70027014C002683E7C0461C
:101C5000FF070000FFFF7FFFFE0700004B467707EE
:101C6000D8080743F00891E7CD4F611C39426BD18A
:101C7000310048460143002C00D04BE11F001743C0
:101C8000002900D181E1002F00D14CE74A444A45A8
:101C90008041F61840423618330200D5B0E11700F3
:101CA0009146374300D03EE7002654E74946891A5B
:101CB0008846C145BF41F11A7F42C91B0F0261D45A
:101CC00047460F4300D1BDE00E00474651E6B54CF4
:101CD000A04500D100E10127382900DDB8E68024C5
:101CE00024042643A3E6B04EE41A16407B0700D036
:101CF0003FE743E70F001800203FF84084462029C3
:101D000003D04027791A8B401A43531E9A416346E9
:101D100017001F4322E6A448E11A10404707C008F5
:101D200007E734004846044300D1FAE04C1E01297D
:101D300000D1D7E09B4FB94200D1E2E00127382C17
:101D400000DD4FE721003CE7964CA14200D1DDE0E9
:101D50004A444A458041F31840421818C7075208C0
:101D600017434608520705D00F220C003A40042AB8
:101D700000D02CE67607FF0837430009D9E6002794
:101D80000026E8E64946571ABA4292419E1B524243
:101D90006546B61AEDE5002900D0C6E0002F67D1F0
:101DA000802600257F4C3603D5E665460C001E00D4
:101DB000D008E4E64A444A458041F31840421818E6
:101DC0001100030200D496E0774B49081840C3077E
:101DD0000B434408490700D129E10F221A40042A85
:101DE00000D1EAE01F1D9F42B64176423619022417
:101DF000C4E649468F1AB9458041F61A4042361A60
:101E0000330206D47307FF0801211F43F00890E650
:101E100065460124ABE54B467707D8080743F00831
:101E2000B4E60F001800203FF8408446202903D074
:101E30004027791A8B401A43531E9A416346170074
:101E40001F4335E600250024002684E60C003500FB
:101E5000203CE540202905D04024611A8E404946A7
:101E6000314389464846411E884107002F43EFE52C
:101E7000D2085F0765461743D80887E6171ABA42A3
:101E800092419E1B5242B61A3302C1D47307FF0817
:101E9000654601211F43F0084BE6002F7BD06546C5
:101EA0001E0091463FE6811A8846C145A441F11AB9
:101EB0006442091B80242404214277D0101A8242F4
:101EC000924107009E1B5242B61A374300D0A0E051
:101ED0006546002400263EE65F07D20865461743A4
:101EE000D80853E6811891429241F0185242801866
:101EF000030200D568E74707C9080F43C00801215E
:101F000017E6D2085F071743D8083FE60C00002603
:101F1000002720E6002956D15F07D2081743D808CA
:101F200034E60C001E00D00829E6C1087007014302
:101F3000F008002F62D080242403204207D0DE085E
:101F4000264204D165463000D1085B0719434F0F84
:101F5000C900C9087F070F4318E60C003000203C79
:101F6000E0408446202905D04024611A8E4049462D
:101F7000314389464846411E8841614607000F4368
:101F800030E620210027091A0EE51E00002F00D0A0
:101F900022E5002458E7002500240026DBE5C046A2
:101FA000FE070000FF070000FFFF7FFF47460F43CB
:101FB00000D147E70E00C146B5E5DF0864070221FE
:101FC00027430009B5E51900C00877070743114307
:101FD000F008002900D1D9E580210903084207D083
:101FE000DC080C4204D1D2085B071A43170020001A
:101FF0007B0FFF00FF085B071F43C7E50F00C5E528
:10200000124BD20833405F075B02012417431E0BBB
:10201000A1E5264212D00D4B6546020001241E4068
:10202000E6E4210085E51700A8E53A00D4E4DB08E2
:1020300064071C432700022100097AE5C0087707DE
:10204000074365460021F00873E5C046FFFF7FFFA8
:10205000F0B5DE46454657464E46E0B587B000929D
:1020600001930B031B0B9B46CA0F4B0004008046D9
:102070005B0D029200D198E07C4A934237D05946DA
:10208000420FC9000A43802109041143C20090464F
:10209000774A894692469A44002300240393009E7F
:1020A000019F3B031B0B9B467B0030005B0DFD0F2C
:1020B000002B59D06D4A934248D05946720FC9003F
:1020C0000A438021090411438B466949F2008C467A
:1020D00051466344CB1A9A460021029E6E40F6B2E6
:1020E0000F2C00D9CEE0634BA4001B599F465A46E3
:1020F0000243914600D090E09A460223904608247D
:102100000393CCE7CB464246029D0399022900D1B6
:10211000DEE1032900D18DE0012900D079E12E0014
:1021200000220023002490461B052343F607334377
:102130004046190007B0F0BCBB46B246A946A046CF
:10214000F0BD002200249046484BEDE75A46009B24
:102150001A43494B9C46E244002A59D102231C43AE
:10216000002302219B46B8E75A46009B1A4349D0F8
:102170005B46002B00D19CE1584601F00DFC0200AB
:1021800003000B3A1D27009EBA1A19005846D64084
:1021900008398840320002439346009A8A40374902
:1021A00053448A4600219A4497E75B460343994685
:1021B00021D05B46002B00D169E1584601F0ECFBD1
:1021C0000B235B429C460200844466461D239B1BF6
:1021D000260011005846DE4008398840330003438A
:1021E000994623008B409846254B00249B1A9A461B
:1021F0000023039353E7002398469A4601330424AF
:1022000003934CE701231C43002301219B4664E711
:102210000323320003211C435FE79A460323D94678
:102220000C2403933BE700238024984600260F4BA1
:10223000240379E780245B4624031C4324032E00F7
:1022400090460A4B240B6FE780244B46240323421D
:1022500002D05B462342F0D080244B4624031C432B
:102260002403029E014B240B5EE7C046FF070000DB
:1022700001FCFFFFBCBF000801F8FFFFF3030000F3
:102280000DFCFFFFCB4500D2F8E000D1F3E00123C5
:102290005B429C46444648460025E2445B46170E96
:1022A0001B021F43190C3B04120200971F0C91469E
:1022B00002910397FDF7CAFF02007A430B04210C39
:1022C000804619438A4209D9009F0123BC465B42DC
:1022D00061449C46E0448F4200D85CE1881A029930
:1022E000FDF7B4FF039A240442430904240C0300BD
:1022F0000C43A24206D90099013B8C466444A1429A
:1023000000D842E1A01A424612041A4393464B46B3
:1023100059461B0C1F0004930B0449460904090C81
:102320000C001B0C5C43120C7B43884651437A43E0
:10233000270CBC465B186344994203D980214902AB
:102340008C466244190C24041B04240C8A181C19A2
:10235000904202D316D1A54214D25B46009F013BA6
:102360004D4405934D459B41BC465B426344C018B8
:10237000874200D302E1824200D929E100D124E161
:10238000059B9B462C1BA542AD41009B801A6D42CC
:10239000401B834200D10FE10299FDF757FF039ADA
:1023A0000B044243210C050019438A4200D9CBE0BB
:1023B000881A0299FDF74AFF039A2404424309044C
:1023C000240C03000C43A24200D9CAE04146A41ADF
:1023D0002A041A43049F13041B0C594340467B43B1
:1023E0009C46150C68430B0C844463447D4398421F
:1023F00003D98020400284466544180C09041B045C
:10240000090C40195B18844227D323D001233500DF
:102410001A43944B5344002B60DD510700D086E0F3
:102420002E00D1085A46D20106D55A468E4B1A4084
:1024300080239346DB0053448C4A934200DD80E6C0
:102440005A4652070A4390465A465B055402240BEB
:102450005B0D69E63500002BDBD0009D511EAC46BC
:102460006444AC4200D29EE0844200D2E1E000D15C
:10247000EEE00A00CAE7424500D908E74B46DC0710
:10248000580843465B081C434346DD0706E701F056
:1024900083FA15239C4684440200634620321C2B99
:1024A00000DC92E6230008388340994600239846D2
:1024B0009AE601F071FA02000300153220331C2A5B
:1024C00000DC5FE600990838814000228B4666E612
:1024D00000222E0000249046654B25E62E000121A7
:1024E000C91A382900DD1BE61F297EDC614814006B
:1024F00050445B4682408340CC40501E824123437F
:102500001A435B46CB40510709D00F2111400429E3
:1025100005D0111D9142924152429B180A001902A6
:1025200000D49BE00022012300249046FCE50F210B
:102530001140042900D173E7111D9142924152428A
:102540002E00C90893446DE7009B013D9C46614401
:102550008B4200D92CE78A4200D829E7851E6144C6
:1025600026E70099013B8C466444A14200D92DE73F
:10257000A24200D82AE7831E644427E7874200D09E
:10258000FEE6A94500D9FBE6F5E6A24200D8B9E689
:10259000831E6444B6E68A4200D89FE6BC46831E8A
:1025A000984661449AE60A00844200D02EE74B45E3
:1025B00000D02BE735002CE72A4B2F4A5344924595
:1025C00043DB0122002193442CE7AC4200D8D7E63C
:1025D00002235B429C4600994D444D459B41E34498
:1025E0008C465B426344C018CCE61F204042C31AAD
:1025F0005846D840202904D05946204B534499408E
:102600000A43531E9A410723190002430024114034
:10261000134209D008331340042B1DD0131D9342DD
:1026200089411A0049424907D2080A4390460023CB
:102630007AE54946009F4D004D458941BC464942D7
:102640006144A946023A6418AEE70122524246E7C5
:102650009945EED30A00AAE70021E5E759075B0296
:102660001C0BE1E7FF030000FFFFFFFEFE07000079
:10267000FF0700001E04000002FCFFFF3E040000F4
:10268000F0B55746DE464E464546E0B50D0004001F
:10269000E80F83460903D80F090B824619488C4678
:1026A0001F0369005E00490D3F0B760D814218D073
:1026B00086420FD00120B1420DD1BC450BD19442CE
:1026C00009D1D3451CD0002905D160462043431EC3
:1026D000984100E00120F0BCBB46B246A946A046A6
:1026E000F0BD01208E42F6D1614639430F001743F9
:1026F0002743F0D15B465246981A431E9841EAE7B9
:102700000020E8E7FF070000F0B557464E46454673
:10271000DE46E0B50D000E034900490D8A46DF0F85
:10272000E90FBC4683B02F4F04008046019158004A
:1027300019039146360B090B400DBA451DD0B8421E
:102740000DD05746002F2AD13443002824D10A4304
:1027500036D0002C41D163465800013815E01143B2
:1027600038D15346002B01D12643F4D0019B634559
:1027700007D1019B5800013807E026432AD1504574
:1027800021D00120019B5F42384303B0F0BCBB461F
:10279000B246A946A046F0BD002CDCD0E6E70028F2
:1027A000EFD0019B6345ECD18245EADCE1DB8E4250
:1027B000E7D8DED1C845E4D80020C845E5D2D8E73F
:1027C000002CE2D0DDE7114304D1019B6345D8D151
:1027D0000020DAE702204042D7E7019B6345E6D0BC
:1027E000CFE7C046FF070000F0B557464E464546C6
:1027F000DE46E0B50D000E034900490D8A46DF0FA5
:10280000E90FBC4683B02E4F04008046019158006A
:1028100019039146360B090B400DBA451ED0B8423C
:102820000DD05746002F27D13443002833D10A4317
:1028300034D0002C40D163465800013815E01143D4
:1028400012D15346002B01D12643F4D0019B63459E
:102850001DD00120019B5F42384306E0264303D18F
:102860005045F6D111431CD0022003B0F0BCBB464A
:10287000B246A946A046F0BD0028EAD0019B6345B8
:10288000E7D18245E5DC02DB8E42E2D80ED0019B27
:1028900058000138E9E7002CCDD0D7E7002CE4D070
:1028A000D7E7019B00206345DFD0D2E7C845D0D8E9
:1028B0000020C845D9D2EAE7019B6345E4D0C8E7C8
:1028C000FF070000F0B557464E46DE464546E0B5E8
:1028D0001F000B031B0B16009A46CA0F4B00040087
:1028E000914685B05B0D00D1CFE1CD4A934255D0E2
:1028F0005146420FC9000A43802109041143C20016
:102900009046C84A8A4693469B440023002502937A
:102910003C037B00FA0F0196240B5B0D009200D163
:1029200088E1BF4A934200D192E0BE4A9446634494
:102930009B440A2D42DCE400730F23438024494664
:1029400024041C43F3000193009B00205940CBB2A8
:102950000393022D00DC94E00123AB401D00A6236D
:102960002A00DB001A401D4200D029E290239B0080
:102970001D4200D14DE20023802499462403A84B38
:1029800010004A461B052343D2071343190005B024
:10299000F0BCBB46B246A946A046F0BD5246024333
:1029A000904600D0ACE19B46022392460825029354
:1029B000AEE7009BA2469946019B9846029B022BDC
:1029C00000D1CAE1032B00D192E1012B10D10023E9
:1029D00000240022D4E701227B083A4013435246E8
:1029E000D2071343984653465B089A46039B994681
:1029F0005B46581C8023DB005B44002B00DCB1E10C
:102A0000424652070BD00F2241460A40042A06D004
:102A10004246111D414592418846524292445246D7
:102A2000D20106D55246804B1A4080239246DB00E5
:102A3000C3187E4A934200DD8FE14246D1085246D8
:102A400052070A4351465B054C02240B5B0D97E786
:102A5000734B26439C46E344002E00D16FE10323D1
:102A600049461D43009B5940CBB203930A2D00DD1C
:102A700033E10123AB401D000323029388222A4245
:102A800097D1424643461204120C160001981D0CC1
:102A9000030C0004000C4643B4461E006E4300962F
:102AA000160007005E436146B0466F430E0CB84403
:102AB0004644B74205D9802149028846009F4744D1
:102AC000009761460904090C370C36048C46310026
:102AD000614401911100260C2404240C61438C46AE
:102AE0002100694389466146090C884672434A447D
:102AF00042447543914503D98021490288464544A3
:102B0000110C884661460904090C8C461204624483
:102B1000B91802915146090C8C4651460F043F0CDE
:102B20003900414345448846614641438A4641460F
:102B30006046090C894658437B4353444B449A45AD
:102B400003D98021490289464844190C89464146E7
:102B50000904090C8846390061431B044344884634
:102B600061464C4371438C46414677430E0C3F19F6
:102B7000F6194844B44203D9802149028946CC441D
:102B80000299009F894631044F4489464146974245
:102B900092410C04240C4C44FF1852426419A118B1
:102BA0009F429B41884682465B42994690459241AE
:102BB000AC42A441C244D1445242644214439945B8
:102BC0009B41824592415B42524213434A46360C36
:102BD000A419E31863445B02D20D1A43019992468B
:102BE0007A020A43501E8241FF0D17434A465202A1
:102BF0001743B846DB0100D5EDE60D4B039A5B4465
:102C00009146002B00DCACE03A00520700D110E7FF
:102C10000F2258463A40042A00D0F9E609E7C04698
:102C2000FF07000001FCFFFFFFFFFFFEFE070000A3
:102C3000FF030000220032436FD0002C00D1C2E01D
:102C4000200000F0A9FE020003000B3A1D20821AAA
:102C500030001900D04008398C4002002243340073
:102C60008C405946CB1A86498B469B440A2D00DD81
:102C7000A4E64946009B01945940CBB214000020C1
:102C80000393022D00DD67E6FBE6534603439846B7
:102C90003CD05346002B00D1A3E0504600F07CFE10
:102CA0000B235B429C4602008444110050460839C5
:102CB00088401D23804660461B1A2000D840030030
:102CC000404603439A4623008B4098466C4B0025B0
:102CD0009B1A9B46002302931AE60F2D00D0C9E0F1
:102CE000802352461B031A4202D01C4200D192E0BC
:102CF0008024534624031C4324034246240B3EE60F
:102D00009B46032380460C25029301E600239A4646
:102D10009B46013304250293FAE501210D430A2D58
:102D200000DD4BE6494600984140C9B20391022DAF
:102D300000DC96E000230024012001930CE64946C4
:102D40000223009A2B435140CAB203920A2B00DDA2
:102D500034E6002D57D1039B994600240022494BAD
:102D60000EE658460121C91A382900DD2FE61F2931
:102D700056DD1F2254465242D31ADC40202907D088
:102D8000414B42469C465346604483401A4390461A
:102D900042460721531E9A410B0022431340002450
:102DA000114209D00F231340042B5DD0111D914215
:102DB0009B410A005B425B07D2081A430023DFE510
:102DC000039B9946FAE5019800F0E6FD0200030036
:102DD000153220331C2A00DC38E7019A083882407B
:102DE0003FE700F0D9FD15239C468444020063466A
:102DF00020321C2B00DC58E70023984623000838BB
:102E000083409A4662E71D000023002402200193BC
:102E1000A2E5029032E61C43009B019A9946AEE57A
:102E20001A4B5246C31840469A40C8400243404697
:102E300098400300581E834154461A43CC40530720
:102E400009D00F231340042B05D0131D9342924148
:102E50005242A4181A00230208D50123002400229C
:102E60008EE5894600248BE50023A5E7630764020D
:102E7000240BA1E7009BA2469946019B984637E7A1
:102E80000DFCFFFFFF0700003E0400001E040000D1
:102E9000F0B557464E464546DE46E0B583B0009055
:102EA00001910C034D00CE0F610A009C5F00640F7E
:102EB0000C43009900920193C80019037B0D9946B9
:102EC000019BCC4FDB0F9C464B0A00998046490F73
:102ED0001943009B8B46DA0092466D0DB94500D12F
:102EE000BFE00123614659404B468C46EB1A8E42A7
:102EF00075D0002B00DCA3E24946002900D1CEE0CA
:102F0000BD4200D100E20127382B19DC8027594649
:102F10003F0439438B461F2B00DDFAE12027F91AC5
:102F20008C4659466746B9400F001100D9400F43FF
:102F300061468A40511E8A415946D9401743641A56
:102F4000C71BB84280414042241A230200D440E10A
:102F50006402640A002C00D154E1200000F01CFD42
:102F60000300083B20213800CA1AD0409C400200D0
:102F70009F4022439D4200DDA6E1581B0130091A03
:102F80003C008F40C4407B1E9F4113008B40274371
:102F90001F43C2403B0014000025134300D1F7E15A
:102FA0007B0700D177E30F2338003B40042B04D08C
:102FB000381DB842BF417F42E419230200D468E3C0
:102FC0008C4B01359D4200D1F4E08B4B6D051C40CC
:102FD0006D0D6707C00864020743240BECE0002B6B
:102FE00000DC29E34946002900D0D6E059461143C8
:102FF00000D12EE1591E012B00D1E6E1BB4200D1E8
:1030000082E101270B00382914DC1F2B00DD3CE294
:103010002027F91A8C4659466746B9400F0011001F
:10302000D9400F4361468A40511E8A415946D940D2
:10303000174364183F1887428041404224182302F6
:1030400000D4C6E06B4B01359D4200D1B2E00121B6
:10305000694B7A081C4039400A43E7071743640864
:103060009EE7664B11438A46EB18002928D0664537
:103070002CD0002B5BD0002D00D12CE15B466646A6
:103080005F07D2081743DD083B002B4300D1E2E085
:10309000802424032C432403564D240B8CE05946F2
:1030A000114300D1D5E0591E012B00D1B9E1BB423B
:1030B00000D1B1E101270B00382900DD40E72AE704
:1030C0006146012779408C466645D2D1002B00D15C
:1030D000C5E0002D00D055E14B462500054300D149
:1030E00012E2591E8C46012B00D149E2414DAB4200
:1030F00000D18FE20127382911DC63461F2B00DD48
:103100005BE26146202327005B1A050098409F4040
:10311000CD40431E9841CC402F430743A344BF18E2
:103120009742924152425A4414004D4687E7344F29
:103130006B1C3B4200D0B6E05946230011430F0000
:103140000343002D00D026E1002B00D1C0E100296F
:1031500000D1A1E0831A98465B464045AD41E31A91
:103160006D425B1B80252D042B4200D14BE15B4659
:10317000101A824292411C1B0700012663465242EC
:10318000A41A27431E40002F00D142E12C4200D157
:103190006DE2194B01251C401BE7BD4200D13BE10C
:1031A0000127382B00DD45E7802759463F04394386
:1031B0008B462AE7002400272D052543F6073543D3
:1031C0003800290003B0F0BCBB46B246A946A04671
:1031D000F0BD7B0704D00F233B40042B00D0E7E673
:1031E0002B00F808034A67070743E508934200D11C
:1031F0004AE7A5E0FF070000FFFF7FFF01F8FFFFA0
:10320000FE070000380000F0C7FB030018331F2B37
:1032100000DCA7E63A00083882409D4200DD8AE0E3
:103220005B1B581C1F2800DCD8E117001F3BDF4048
:10323000202805D040231B1A9A40531E9A41174359
:103240000025002F00D1E5E07B0700D0ABE62C0085
:10325000C6E7C008C6E700270024D14DACE7D14F30
:103260006B1C3B4271D123000343002D00D04EE183
:103270005746002B00D1B5E1002F0DD083188342B3
:1032800080415C4440422418220200D5C8E11F005E
:103290009846274300D1BCE043466707DB081F433D
:1032A000E50800234CE0831A98465B464045BF4141
:1032B000E31A7F42DB1B1F027CD447461F4300D129
:1032C000A6E01C00474645E6B74CED1A14407B07C4
:1032D00000D080E784E74B462500054366D05F1E9B
:1032E000012B00D1FCE0AE4DAB4200D15EE1664661
:1032F000382F00DCB4E00120171ABA4292415B4635
:1033000052424D469C1A20E66707C0080743E5086D
:10331000BAE61F005946203FF9400F00202B05D088
:103320004021CB1A594699400A43924653465A1EA9
:1033300093411F4304E6EB1A9B4D15406F07ED08C0
:103340002C035D05240B6D0D36E7954DAB4200D186
:10335000D6E0821821008242804159444042081838
:10336000C707520817434408520700D485E10F22CB
:103370001D003A40042A00D01AE6FF0864072743DC
:103380000509DDE75B46D2085F071743DD087BE6EA
:103390000027002410E7002B00D0D6E0002900D041
:1033A0002FE1802400267E4D240305E766465C4617
:1033B000D00817E75B46171ABA4292411C1B012638
:1033C00063465242A41A1E40C4E5831883428041DA
:1033D0005C44404225182A0200D4DAE0724A5B08B5
:1033E0001540EA071A4369085B0700D44AE10F2336
:1033F0001340042B00D1FCE0171D9742A441644206
:1034000002256418ECE647461C001F4300D043E742
:10341000002600250024CFE6C00867070743E5081B
:1034200032E6871A5B46B8428041E41A4042241AC9
:10343000230228D46307FF081F43E50801237FE721
:10344000002B00D173E64B465F1B3B00002D00D1E3
:1034500042E7382F00DDECE080230E001B041C4304
:103460001F2F25DC20252300ED1B0100A840AB40C9
:10347000F940451EA8410B43FC4018435B461B1B0B
:103480009B4639E76646012562E51F005946203F05
:10349000F9408C46202B05D040275946FB1A99400D
:1034A0000A43924657467B1E9F4163461F43C1E530
:1034B0003B002500203BDD40202F04D04023DB1BB8
:1034C0009C40204380464046431E9841284313E7D2
:1034D00000299DD0012663465C4690461E40DBE6EF
:1034E000171A5B46BA4292411C1B5242A41A23028D
:1034F000C8D46307FF081F4366460123E5081FE79A
:103500001D000024002757E65C46D0086AE6002B21
:1035100000D137E75346C00867070743E508002B8B
:1035200000D1B1E580231B031D4208D05946C808CD
:10353000184204D1D20849070A43170005007B0F3F
:10354000FF00FF085B071F439EE5C00863071843A1
:10355000E508002953D080231B031D420AD0594699
:10356000CC081C4206D1012663462500D008490735
:1035700008431E40470FC000C0087F07074383E58C
:103580008318934292415C445242A5182A0200D506
:1035900024E76F07DB081F43ED080123D0E6C04690
:1035A000FF070000FE070000FFFF7FFF5B46D20819
:1035B0005F0766461743DD0866E52500203BDD40D2
:1035C0006346202B05D0402361465B1A9C40204374
:1035D000804647467B1E9F412F43A0E520210027C0
:1035E000091AD2E4002F00D113E75C46170000252A
:1035F000F6E5D708490702230F432D09A0E6070087
:1036000042E55B4601265F07DD086346D2081743A3
:103610001E4039E55B46D2085F071743DD0833E5F6
:103620001E4ADB0822405707520201251F43140B94
:10363000C2E50E0001205FE6002B0DD04B465B1B60
:103640009C46002D00D148E50127382B00DD66E5BA
:1036500080231B041C4350E56B1C114D2B4200D0F2
:1036600073E65946230011438A46034300E6670781
:10367000C00800230743E50862E66407FF08274304
:1036800005095DE6D208490711430F0002232D0901
:1036900056E60700A4E538008FE4C046FFFF7FFF31
:1036A000FE070000F0B5C6461E03360BB0460D4EB1
:1036B0000C034D005F0000B5240B6D0D7F0DB5426E
:1036C0000BD0084900208F4204D1464616433000F3
:1036D000431E984180BCB846F0BD04430120002C35
:1036E000F8D1EEE7FF0700000B00020070B5164DA1
:1036F0000C0382B04900002000920193240B490D75
:10370000DE0FA94204DD1148814203DD104BF018A1
:1037100002B070BD8020400320430E4C641A1F2C61
:1037200008DD0D4B5B1AD84003005842002EEFD144
:103730001800EDE7094B009A9C46030061448B405A
:10374000E2401343F1E7C046FE0300001D04000001
:10375000FFFFFF7F3304000013040000EDFBFFFFB9
:1037600070B5002816D0C317C5185D40C40F2800D7
:1037700000F012F9104B1B1A5B055B0D0A2814DCD4
:1037800002002E00153296400B22121AD5402D034E
:103790002D0B03E000240023002500261B052B43EE
:1037A000E40723433000190070BD0B3885402D031A
:1037B00000262D0BF2E7C0461E04000010B5041EC3
:1037C00010D000F0E9F80E4B1B1A5B055B0D0A28C0
:1037D0000FDC0B222100121AD14015300A0384405D
:1037E000120B01E0002300221B05134320001900E7
:1037F00010BD22000B38824012030024120BF3E7A5
:103800001E04000070B542024300C40FFE201B0ED0
:10381000591C550A08420CD0E02189008C466D07DE
:10382000120B63441B051343E407234328001900CC
:1038300070BD002B14D1002D1BD0280000F0ACF877
:103840000A281CDC0B232A001B1ADA40030015335C
:103850009D400E4B12031B1A5B05120B5B0DE1E73B
:10386000002D09D0130B802212031A436D07084B59
:10387000D8E700230022D5E70022054BD2E703005A
:103880002A000B3B9A400025E3E7C046890300006D
:10389000FF070000F0B54B000F035B0D3A4C450FDE
:1038A00083B07F0A5E1C2F4300900191CA0FC500B0
:1038B00026420BD035495C18FE2C13DDFF20002377
:1038C000C0051843D207104303B0F0BD3D43002BA1
:1038D00001D10020F4E7002DF0D08023DB03FF208E
:1038E0003B43EDE7002C0CDD009BFF009B01581EC5
:1038F0008341690F3B430B43590727D1DB08E0B2F3
:10390000DEE72100173131DB80211E200904394315
:10391000001B1F282DDD02267642341B0E00E640D8
:103920003400202804D01A488446634499400D434B
:103930002B00591E8B412343590703D00F211940F7
:1039400004290BD19B0100205B0AB9E70F21194024
:10395000042904D19B015B0AE0B2B1E700240433DF
:103960005901F7D501340023E0B2A9E70020002374
:10397000A6E7084C1C192B00A540C340A140681EB7
:10398000854129430B43D7E7FE07000080FCFFFF7A
:10399000A2FCFFFF82FCFFFF1C2101231B049842B5
:1039A00001D3000C10391B0A984201D3000A0839D0
:1039B0001B09984201D30009043902A2105C401887
:1039C0007047C0460403020201010101000000002B
:1039D0000000000010B5002903D1FFF7DDFF203003
:1039E00002E00800FFF7D8FF10BDC04630B58BB02D
:1039F0001422002104A804F06BFD04220124194BB9
:103A0000194DD96A28001143D962D96A0A40019236
:103A1000019ADA6A2243DA62DA6A22400292029A50
:103A20000222D96A1143D962DB6A07211A40039244
:103A30000122039B01F00CFF0723059400242800BA
:103A400004A904930694079401F040FDA0201F22CE
:103A5000002304A9C00504920593069401F036FDE5
:103A60000BB030BD001002400008005010B5194BDB
:103A7000194C01222360194B200063600023E2608F
:103A8000A36023616361A361E361236202F08AF8AA
:103A900000280CD10021200002F0E2FB00280ED10A
:103AA0000021200002F002FC002810D110BD00F01F
:103AB00005FE0021200002F0D3FB0028F0D000F02A
:103AC000FDFD0021200002F0F1FB0028EED000F007
:103AD000F5FDEBE7005400405C020020380F300099
:103AE00010B51B4B1B4C012223601B4B2000636055
:103AF0000023E260A36023616361A361E361236249
:103B000002F050F8002810D10021200002F0A8FB9C
:103B1000002812D10021200002F0C8FB002814D197
:103B20008020800102F0F0FB10BD00F0C7FD0021F5
:103B3000200002F095FB0028ECD000F0BFFD002132
:103B4000200002F0B3FB0028EAD000F0B7FDE7E761
:103B500000580040080200200C04400010B504008A
:103B600088B01422002102A804F0B2FC2368204A85
:103B7000934204D01F4A93421DD008B010BD0223C7
:103B80001D4C1E48E26A02A91A43E262E26A13402F
:103B90000093009BC02303220293AE3B0393113B8F
:103BA00004930592069301F091FC8023A26B9B0382
:103BB0001343A363E1E702230F4C1048E26A02A912
:103BC0001A43E262E26A13400193C022019B12236E
:103BD000120102920393032305930333069301F02A
:103BE00075FC8023A26BDB031343A363C5E7C046C8
:103BF00000540040005800400010024000040050F3
:103C000010B5030086B00800002B19D0002917D08A
:103C1000196000216424D960196100211A715200D1
:103C200099829C60D2B205AB198091B202220093B6
:103C3000019201230022029402F096F906B010BD11
:103C40000120FBE770B586B005000AA80478E020E3
:103C50009B0140000340D000382202401343E02281
:103C60004902120111406242544102266242B243AB
:103C70000B430732134305AC5BBA23802979AB6849
:103C80004900C9B228680022029389B20123019633
:103C9000009401F0DFFF06B070BDC04670B50D1C8A
:103CA000040086B00021281C161CFCF719FC002813
:103CB00031D10021301CFCF713FC03000120002B44
:103CC00027D1311C281CFDF789F9011C1348FCF78A
:103CD000B7FFFC218905FCF7C1FD08F0E1F8FDF70D
:103CE0003BFD031C000400D50D4BA38205AA5BBA63
:103CF0001380A36821792068E5602661029302237E
:103D00004900C9B20193009289B20522013B01F03A
:103D1000A1FF06B070BD0120FBE7C046ACC5A73BC4
:103D2000FF7F0000F0B504000E0087B0002923D00B
:103D3000002305AD2B80037900685B00DBB299B2EC
:103D4000A36804220293022300950193013B02F031
:103D50000BF9071E0DD12888C0BAFDF71DFD21699A
:103D6000FDF73CF90021041CFCF7CEFB002805D030
:103D70003460380007B0F0BD0127FAE70024346052
:103D8000F7E7C0460023020030B587B005AC2380BA
:103D900003790D005B00DBB299B29368006802936F
:103DA0000223022201930094013B02F0DDF8002877
:103DB00015D1208840BA80B2FDF73EFD0A49FDF7D3
:103DC0000DF9FCF7F9FB80B2FDF7E6FC0749FCF7BB
:103DD00037FF0021041CFCF797FB002800D10024CA
:103DE00000202C6007B030BD0000A03F00007A44E6
:103DF00010B59EB03822002110A804F069FB1422EF
:103E0000002101A804F064FB2422002106A804F08C
:103E10005FFB80232349244C0A681B012240134383
:103E20000B6002F07FFA214A10A8136D234013653E
:103E30000623802210930123520012921393102321
:103E400014930E3B1A9300231B938023DB021C93D5
:103E50008023DB031D9302F0B7FA002801D072B66D
:103E6000FEE70F2301930C3B029380230390049001
:103E7000DB00012101A8059302F09CFD002801D080
:103E800072B6FEE7802328220C905B0206A80692F9
:103E9000079302F07DFE002801D072B6FEE71EB047
:103EA00010BDC04600700040FFE7FFFF0010024059
:103EB000F0B5DE4657464E464546E0B5A9B001F09E
:103EC0007DFAFFF795FFFFF791FDFFF7CFFDFFF7B5
:103ED00007FE00F097FF00F0C3FF00F0F1FBBE4BC0
:103EE000012618000D9300F073FCBC4CBC48210067
:103EF0004822099001F056F8BA4B21001D004022DB
:103F000018000A93FFF77CFE0423042202212800F4
:103F10000096FFF797FE2800B34AB449FFF7BEFEAC
:103F2000B34D210045222800FFF76AFE0423042236
:103F3000022128000096FFF785FE2800AA4AAB4917
:103F4000FFF7ACFEAB4B21001C00752218000B9351
:103F500001F072F8A84803F039F80021A74803F0EF
:103F6000A9F80021200001F0A9F82000A44901F0DF
:103F700031F90021200001F071F9A24CA24BA020E0
:103F800023803223A14A0121C005A37013600E9241
:103F900001F058FC9E4B9F4D9946431E98414B465D
:103FA00018609D4B9D4E04939D4B05939D4B06932E
:103FB0009D4B07939D4B98469D4B47469B469D4B7B
:103FC0009A469D4B08939D4B0F939D4B10939D4B91
:103FD00003939D4B11939D4B12939D4B13939D4BBC
:103FE00014939D4B16939D4B17939D4B15939D4B8F
:103FF00027939D4B0C939D4B21939D4B22939D4B5F
:1040000023939D4B24939D4B25939D4B26939D4B32
:104010001E939D4B1F939D4B20939D4B18939D4B3F
:1040200019939D4B1A939D4B1B939D4B1C939D4B3A
:104030001D9304990B9801F047F90599099800F030
:10404000CBFF0A9B069998461800FFF79BFE07993D
:104050004046FFF767FE012001F0D6F93B68002BD0
:1040600000D1B1E0A37862783B2B04D90023013260
:10407000D2B2A370627023783B2A04D900220133A4
:10408000DBB262702370172B01D9002323704B46DB
:104090001B689846002B00D008E1A0200121C00534
:1040A00001F0D0FB002800D07CE1002201217E48F5
:1040B00001F0CEFB0023A0205A461021C00513605A
:1040C00001F0C0FB002800D07BE1002202217648ED
:1040D00001F0BEFB0023A02052460221C005136060
:1040E00001F0B0FB002800D063E1002204216E48FB
:1040F00001F0AEFB4246089B00201A6000F00AFB6C
:104100000021002000F0F6FD6A68012329680F985D
:1041100000F0D4FD0A21002000F0ECFD6A680123C4
:104120002968109800F0CAFD1421002000F0E2FD7B
:10413000524613685A46126803999B009200CB5866
:104140008A583000119904F055F96A6801232968EA
:10415000300000F0B3FD1E21002000F0CBFD089BD5
:1041600003991B6830009B00CA58129904F042F969
:104170006A6801232968300000F0A0FD2821002092
:1041800000F0B8FD0E9B13991A68300004F032F964
:104190006A6801232968300000F090FD3221002078
:1041A00000F0A8FDA178637822783000009114997E
:1041B00004F020F90123300029686A6800F07EFDD0
:1041C0000D9800F0B5FA34E7FA239B003B60A37822
:1041D0000133DBB2A37046E7080200205C02002036
:1041E00014030020EC0200206F1283390AD7233C0D
:1041F000D402002008030020F0070020B0070020B0
:10420000CDCCCC3D5C030020173B000048030020D0
:10421000580300200800002004030020B002002002
:10422000C8020020D0020020CC0200202003002081
:1042300054030020500300204C030020C4D4000885
:10424000DCD4000810000020ECD4000800D50008E1
:1042500008D5000814D500083C03002030030020D6
:10426000340300202CD500080000002040D50008B1
:104270002C03002048D500083803002050D5000842
:1042800054D5000858D500082803002060D5000840
:1042900064D5000878D5000880D5000888D50008C6
:1042A0008CD5000898D5000800080050012B00D0DC
:1042B000BFE6169B1B68012B00D189E0002B00D0C4
:1042C000B7E601219A48002201F0C2FAA02010218D
:1042D000C00501F0B7FA012800D10DE1A02010219E
:1042E000C00501F0AFFA179B1860002000F012FA29
:1042F0000021002000F0FEFC6A680123296818985C
:1043000000F0DCFC0A21002000F0F4FC0C9A0123F0
:1043100006CA199800F0D2FC0A21372000F0EAFC06
:104320000E9B1868FDF738FAFFF76CFA02000B00D5
:1043300030001A9904F05EF8159B30001B685A1E75
:1043400093410C9ADBB206CA00F0B8FC0A216E2039
:1043500000F0D0FC0C9A012306CA1B9800F0AEFCBA
:104360001C21002000F0C6FC159B1C981B68013B1B
:104370005A1E93410C9ADBB206CA00F09FFC2E2114
:10438000002000F0B7FC159B29681B681D98023BB4
:104390005A1E93416A68DBB200F090FC0D9800F061
:1043A000C7F946E601220121614801F051FA0123D3
:1043B00081E6012204215E4801F04AFA0123984671
:1043C00098E6012202215A4801F042FA012382E6CE
:1043D000A0201021C00501F035FA012800D199E094
:1043E000A0201021C00501F02DFA179B18600020B5
:1043F00000F090F90021022000F07CFC6A680123A3
:104400002968279800F05AFC0A21022000F072FC6B
:104410000C9A012306CA219800F050FC0A21392089
:1044200000F068FC229B03991B6830009B00C95870
:1044300004F0D5F8159B30001B685A1E93410C9A66
:10444000DBB206CA00F03AFC1C21022000F052FC4C
:104450000C9A012306CA239800F030FC1C21392055
:1044600000F048FC259B249930000A681900984602
:1044700003F0C0FF159B30001B68013B5A1E93419F
:104480000C9ADBB206CA00F019FC1C215A2000F07D
:1044900031FC0C9A012306CA269800F00FFC2E214D
:1044A000022000F027FC0C9A012306CA1E9800F097
:1044B00005FC2E21392000F01DFC1F9841460268A2
:1044C000300003F097FF159B30001B68023B5A1E1B
:1044D00093410C9ADBB206CA00F0F0FB2E215A2061
:1044E00000F008FC0C9A012306CA209800F0E6FBB5
:1044F0000D9800F01DF99CE5179B1B68002B00D060
:10450000ECE6159B032118680130FBF789FF159B2A
:104510001960E3E6179B1B68002B00D060E7159B32
:10452000032118680130FBF77BFF159B196057E7E3
:1045300000080050544AF8B51368002B01DD013B18
:104540001360524B984200D0F8BD514A1368002BBB
:1045500042DD013B13600023A0204E4C4E492268EF
:104560004B6353019B1A9B009B18DB00CB62C00579
:10457000042101F067F9494F012836D0484D494ED2
:10458000A0200421C00501F05DF92B683860642B80
:104590004FDD64232B6023680A2B45DD0A2323604B
:1045A0003368642B3BDD64233360A0200121C00508
:1045B00001F048F900282ED13B4A1368013B1360F3
:1045C000002BC1D1012239490B680133D80F1B18C8
:1045D00013401B1A0B60B7E7A0200421C0052D4C27
:1045E00001F030F92D4F0128C8D13B68002BC5D10F
:1045F000A0200821C00501F025F9294D2B680128CC
:104600001CD0013B2B602A4B1B68002B20D1294A70
:10461000244E1360B4E7244B274A1A6094E7002B1A
:10462000C3DA00233360C0E7002BB9DC0123236029
:10463000B6E7002BAFDA00232B60ACE701332B6029
:104640001B4B1B68002B0CD11A4B164E186097E7BA
:10465000012B0FD0134E022B92D1336805333360F8
:104660008EE7012B0BD00F4E022B89D13368053B0F
:10467000336085E723680B4E0133236080E72368AE
:10468000084E013B23607BE720030020F007002059
:1046900024030020380300200008014044030020C8
:1046A0004803002028030020400300203C03002092
:1046B000340300202C030020DC05000072B6FEE766
:1046C0000A480B4B7F2210B50360002382608032C2
:1046D0004360C260036143618361C36102F0A4FB74
:1046E000002800D110BDFFF7E9FFFBE770030020B1
:1046F00000280040054B02689A4200D07047802392
:10470000034ADB02116D0B431365F7E700280040F5
:1047100000100240431E9841822210B54142C9B2A6
:104720000248D20003F0D4FE10BDC0469C03002016
:10473000264BF0B54F4699460A234646D6461724DF
:1047400098460633C0B5B025060001279A4686B0C4
:104750006C444346257000227821029330000123E7
:104760000197009401F076FA00232370434600225B
:1047700078210293300001230197009401F06AFA36
:1047800053462370434600227821029330000123D0
:104790000197009401F05EFA642302931E330193A3
:1047A0004B464022009378210123300001F052FA59
:1047B00082239C460135EDB2E144B82DC9D106B043
:1047C000E0BCBA46B146A846F0BDC0469C030020F6
:1047D000F0B5DE4657464E464546E0B5172487B04D
:1047E000050064200A27012600F00EFEAE236C446B
:1047F0002370002278210094AD3B28000297019697
:1048000001F028FA2023804623709946002278215F
:1048100000941F3B28000297019601F01BFA102319
:10482000002223709B467821804400940F3B28008F
:104830000297019601F00EFAB0230022237078212E
:1048400080440094AF3B28000297019601F002FAE1
:10485000C82300222370782180440094C73B28009D
:104860000297019601F0F6F90023002223709A4680
:10487000782180440094013328000297019601F0CA
:10488000E9F95B46002223707821804400940F3BB5
:1048900028000297019601F0DDF9402300222370E1
:1048A0007821804400943F3B28000297019601F054
:1048B000D1F9812300222370782180440094803B29
:1048C00028000297019601F0C5F9FF23002223700A
:1048D000782180440094FE3B28000297019601F065
:1048E000B9F9A12300222370782180440094A03BD1
:1048F00028000297019601F0ADF9A623002223704B
:10490000782180440094A53B28000297019601F08D
:10491000A1F9A82300222370782180440094A73BAA
:1049200028000297019601F095F93F230022237099
:104930007821804400943E3B28000297019601F0C4
:1049400089F9A42300222370782180440094A33B9A
:1049500028000297019601F07DF9D32300222370ED
:10496000782180440094D23B28000297019601F000
:1049700071F953460022237078218044009401335A
:1049800028000297019601F065F9D52300222370D3
:10499000782180440094D43B28000297019601F0CE
:1049A00059F9F02300222370782180440094EF3BD2
:1049B00028000297019601F04DF9D92300222370B7
:1049C000782180440094D83B28000297019601F09A
:1049D00041F9222300222370782180440094213B56
:1049E00028000297019601F035F9DA23002223709E
:1049F000782180440094D93B28000297019601F069
:104A000029F9522300222370782180440094513BDD
:104A100028000297019601F01DF9DB230022237084
:104A2000782180440094DA3B28000297019601F037
:104A300011F94B46002223707821804400941F3BDB
:104A400028000297019601F005F98D2300222370BA
:104A50007821804400948C3B28000297019601F055
:104A6000F9F8142300222370782180440094133B2A
:104A700028000297019601F0EDF8AF2380442370DF
:104A8000002200947821280002970196AE3B01F0A5
:104A9000E1F84044041E13D182220021D2000948CB
:104AA00003F016FD2800FFF743FE0020064B1C60B4
:104AB0005E7107B0F0BCBB46B246A946A046F0BD49
:104AC0000120F6E79C03002094030020F0B5DE46A9
:104AD00057464E464546E0B50C0A91B00393E3B203
:104AE0001C000693734B0E910F92C9B21A88002CCA
:104AF0006DD026000400203C7443D6B208969E7800
:104B00000F9DB3461E790996002960D064002D19C7
:104B10000024A246684C9946A0465C464646834619
:104B2000A8460D923F2C44D843461888E3089C467B
:104B30009B01059363445B000193072301222340FB
:104B40009A40D543099B0492EDB2002B48D18027AF
:104B50000B9464460022089B3F020A940795029634
:104B600015E0812B0ED8039C012C00D184E0019D1F
:104B7000029CAC469C4465462D5D079C029E2540E8
:104B80006446355501330132DBB291420FD905003D
:104B900095403D42E5D1812BF4D8039D002D00D1F5
:104BA00078E0019C029DA4469C446446E4E70B9C8B
:104BB000029E01239C460133E2449C46069B01343D
:104BC000E044E4B29A45ADD358464B460D9A891855
:104BD000198011B0F0BCBB46B246A946A046F0BD54
:104BE00080270B9464460022089B3F020A94079595
:104BF000029614E0812B0DD8039D002D1ED1019D3E
:104C0000029CAC469C4465462D5D079C029E254057
:104C10006446355501330132DBB28A42C7D2050002
:104C200095403D42E6D0812BF4D8039C002C13D054
:104C3000019C029DA4469C446446E5E70A9C059DB0
:104C4000A44665441C4C6D00EE18A55D0C94049CB4
:104C500025430C9CA555DDE70A9C059DA446164CF2
:104C6000654426006D00ED180C95655D049C254398
:104C700034000C9EA555CDE70A9C059DA4466544CD
:104C80000D4C6D00EE18A55D0C94049C25430C9C06
:104C9000A55577E70A9C059DA446074C6544260068
:104CA0006D00ED180C95655D049C254334000C9E49
:104CB000A55567E7940300209C03002030B583B01E
:104CC00000910192040000781D00002804D10EE03C
:104CD0006078013400280AD0019A2B000099FFF770
:104CE000F5FE22789042F3D0100003B030BD0022D0
:104CF000FAE7C046024B0230C0B2188059807047B4
:104D0000940300200121054B5A6B0A435A63802209
:104D1000996B52050A439A637047C04600100240DF
:104D2000FEE7C046FEE7C0467047C0467047C04633
:104D300010B500F057FB10BD10B5024802F06EFB35
:104D400010BDC046F00700200120704710B503F0E9
:104D500019FC162303600120404210BD10B503F07A
:104D600011FC16230360FEE770B5161E07DD0C006C
:104D70008D1800E000BF20700134AC42F9D1300042
:104D800070BDC04670B5161E07DD0C008D1820786A
:104D9000013400E000BFAC42F9D1300070BDC04624
:104DA000012040427047C04680239B0100204B6099
:104DB0007047C04601207047002070470C490D4ADB
:104DC0000300521A0C4910B50868002804D0C31813
:104DD000934206D80B6010BD0848C3180860934280
:104DE000F8D903F0CFFB0C23036001204042F2E727
:104DF0000004000000200020AC07002080090020F3
:104E00007047C04610B582B008220021684603F002
:104E10005FFB114C114B632223604023FF3363601F
:104E200000232000A360E260636102F089F800289B
:104E30000BD100220023694620000092019302F06A
:104E40007BFB002804D102B010BDFFF737FCF0E770
:104E5000FFF734FCF7E7C046F007002000100040E1
:104E600010B592B01022002104A803F031FB0822F3
:104E7000002102A803F02CFB1022002108A803F057
:104E800027FB324C324B632223604023FF336360A5
:104E900000232000A360E2602361636102F050F808
:104EA00000282FD1802320005B0104A9049302F085
:104EB000FDF9002832D1200002F0B6F800282AD1EE
:104EC00000220023200002A90292039302F034FB87
:104ED00000281DD16023089300230022200008A988
:104EE00009930A930B9302F02BF900280DD1142299
:104EF00000210CA803F0ECFA154B22689A4210D05E
:104F000012B010BDFFF7DAFBCCE7FFF7D7FBEEE7F7
:104F1000FFF7D4FBDEE7FFF7D1FBD1E7FFF7CEFBCE
:104F2000C9E702230B4A0C48D16A1943D162D26AFD
:104F30000CA9134001938022019B022392010C9241
:104F40000D930623109300F0C1FAD9E7B0070020B3
:104F500000080140001002400004005003680E4A9F
:104F600010B5934209D00D4A934200D010BD0421E0
:104F70000B4A536B0B435363F8E71021084A112087
:104F8000936B0B4393630021002200F04FFA112032
:104F900000F076FAEAE7C046001000400008014041
:104FA0000010024010B5030086B00800002B11D09D
:104FB00000290FD0642419601A719C6002230193A8
:104FC00005AB5100009301220123029400F0CCFFB5
:104FD00006B010BD0120FBE770B503000C0086B0E1
:104FE000002827D0002925D000229B6805AE3280FA
:104FF0000179006802930223490001930096013B66
:1050000000F0B2FF051E12D18022338812015BBA74
:105010009BB21B09134202D0F0221202134318B2B2
:10502000FCF7BAFBF6218905FBF7D8FF20602800C2
:1050300006B070BD0125FAE770B5040086B008001F
:10504000002C38D0002936D0162564230126227181
:1050500052006D44D2B22160A36091B20293032248
:105060000095633B019600F07FFF30222B7820688B
:1050700093432D3A13432B7017256D442B702179E0
:10508000A3684900C9B289B2029301960123009531
:1050900000F0E0FD00232B702179A3684900C9B21C
:1050A00020680722029389B201230196009500F03F
:1050B0005BFF06B070BD0120FBE7C046F0B51624CB
:1050C00000230500012787B06C4423700E1C017972
:1050D000AB684900C9B200680422029389B2012377
:1050E0000197009400F040FF00284BD17C232278E8
:1050F0002868134003221343237017246C44237041
:105100002979AB684900C9B2029389B2012301979A
:105110000094013200F09EFD002833D12749301C55
:10512000FBF75CFF2649061CFBF7D0F900282BD0C3
:10513000002006F07BFE802306001B01984231DB35
:10514000204E012726702979AB684900C9B228682A
:105150000022029389B201230197009400F07AFDA6
:1051600000280FD1B6B2360A26702979AB684900FB
:10517000C9B228680122029389B2012301970094E1
:1051800000F068FD07B0F0BD0F49301CFBF7B2F925
:1051900000280BD00D4806F049FE802306001B01B5
:1051A0009842CDDAC343DB171E40CAE70449301CDE
:1051B000FCF76EF80649FBF743FDBAE7B003673D1D
:1051C000EC51383DFF0700009A99993FE0C1FF4438
:1051D000F4FA133A30B5040087B0081C1C49FBF7F9
:1051E000FDFE0021051CFBF785F9002822D0FC21DB
:1051F000281C8905FBF732FB1649051CFBF77AF9D9
:1052000000281DD0144806F011FE802317225B42AF
:105210006A4403431370A368217920680293012331
:105220004900C9B2009289B20222019300F012FD36
:1052300007B030BD0021281CFBF748F9002804D135
:10524000291C281CFBF70AFBDDE70020DBE7C04632
:105250000000204100007E420000FE4270B516248E
:105260000023050086B06C44237003790E005B00B8
:10527000DBB299B2AB680068029301230622019366
:10528000009400F071FE002819D12378002E18D167
:105290007F221340122293430E321343093A6A4489
:1052A00013702370AB6829792868029301234900A1
:1052B000C9B2009289B20622019300F0CBFC06B07D
:1052C00070BD80221343E5E770B503000C0086B083
:1052D000002921D01725002201266D442A7001796A
:1052E0009B684900C9B2006889B202930196012304
:1052F0000095073200F038FE00280BD12B78DA0930
:1053000022709A09324062705A09164003221340F3
:10531000A670E37006B070BD0120FBE70D4885461E
:10532000FFF76EFD0C480D490D4A002302E0D458EA
:10533000C4500433C4188C42F9D30A4A0A4C0023DF
:1053400001E013600432A242FBD303F021F9FEF71F
:10535000AFFDFEE70020002000000020EC0100204F
:105360000CDA0008EC01002080090020FEE70000B4
:1053700070B50400FA200E4B80001978FAF7E0FEB1
:105380000C4D01002868FAF7DBFE00F085F80028D4
:105390000CD10130032C00D970BD0238002221004D
:1053A00000F044F8044B00201C60F5E70120F3E70F
:1053B0001C00002018000020200000204021084A86
:1053C00010B5136803200B431360FFF7D1FF041ED1
:1053D00002D00124200010BDFFF794FCFAE7C0467C
:1053E00000200240034A044B11681B785B181360CD
:1053F0007047C046300800201C000020014B186890
:105400007047C0463008002070B50400FFF7F6FF73
:105410000500631C02D0044B1B78E418FFF7EEFF75
:10542000401BA042FAD370BD1C000020FF220323C2
:1054300010B514000340DB009C4089010A40E4439E
:105440009A4000280BDB0C4BC0219C468008800052
:1054500060448900435823401343435010BD0F2339
:10546000064903408C46083B9B089B006344D9696E
:105470000C401443DC61F1E700E100E000ED00E0E6
:10548000002805DB1F22012302409340014A1360DC
:105490007047C04600E100E08022431E5204012014
:1054A00093420ED2C021074A07485360036A090697
:1054B0001B021B0A0B430362002300209360073387
:1054C0001360704710E000E000ED00E0F0B5DE464C
:1054D00057464E464546E0B50A688B4685B0002AD9
:1054E0006DD0A0210023C905884200D1C8E0012168
:1054F00099408C4611408A4661460A425BD003259A
:1055000059465E00B5404C680321ED4321404F1ED3
:105510000195012F5AD9032900D065E1B1400768F0
:10552000019D3D4029430160C02189020C4242D0C7
:1055300001260F27BC4D696B31436963BB4D0236B1
:10554000AC461E40B600B7409908890061448D689A
:10555000BD43B74FB84200D18EE0B64FB84200D13C
:1055600079E0B54FB84200D136E1B44FB84200D12E
:1055700036E10627B7403D4380268D605546B04949
:105580007603ED438968344200D072E02940AC4E86
:10559000B160F168A60269D42940A94EF160716832
:1055A000A60360D42940A64E71603168E40356D446
:1055B0002940A34C216011000133D94097D105B097
:1055C000F0BCBB46B246A946A046F0BD87682F4056
:1055D000B9465F46FF68B740B8464F4645462F4339
:1055E000876045682F006546AF432509B8462F0000
:1055F00001252F409F40BC46474665462F434760E4
:10560000C5682F00019D2F405D46AD68B8462F004C
:10561000B740BC46474665462F43C760022900D0C5
:105620007CE7DD08AD00AC46844465462F6A07255B
:105630001D40AD00A84602970F254746BD40029F7A
:10564000AF435D46029747462D69BD40029F2F43F9
:1056500065462F6262E70227B7403D438CE7544618
:105660000C432100A5E7564631439CE7564631439B
:1056700093E7564631438AE70127B7403D437BE72E
:1056800001218A46594602913EE0032900D0B8E044
:10569000B1400768019D3D4029430160C021890256
:1056A0000C422CD05646604D0F27696B31430326C0
:1056B00069635E4D1E40AC46B600B740990889004C
:1056C00061448D68BD438D605D465D49ED438968E9
:1056D000E6027ED429405A4EB160F168A60275D424
:1056E0002940574EF1607168A6036CD42940544E8E
:1056F00071603168E40362D42940514C216011008B
:105700000133D94000D15AE7514699408C461140A7
:105710008B4661461142F2D003255E00B5400299E6
:10572000ED434C68032121404F1E0195012FACD859
:1057300087682F40029DB946EF68B740B8464F468C
:1057400045462F43876045682F006546AF432509CE
:10575000B8462F0055462F409F40BC4647466546F9
:105760002F434760C5682F00019D2F40029DB8461A
:10577000AD682F00B740BC46474665462F43C7601B
:10578000022985D1DD08AD00AC46A025ED05A8466F
:10579000C44465462F6A07251D40AD00A9460397FE
:1057A0000F254F46BD40039FAF4303974F46029DD1
:1057B0002D69BD40039F2F4365462F6268E75C4615
:1057C0000C43210099E75E46314390E75E46314342
:1057D00087E75E4631437EE70327B7403D43CBE68C
:1057E0000527B7403D43C7E62F00C5683D40A846A2
:1057F0005D46AD68B540AC46454667463D43C5602D
:105800008CE62F00A025ED05A846ED683D40A94691
:10581000029DAD68B540AC464D4667463D43AC463B
:1058200045466746EF6033E7001002400000014044
:105830000004005000080050000C0050001C0050F4
:105840000004014000690840431E9841C0B27047FF
:10585000002A01D0816170478162FCE7F8B55746A4
:105860004546DE464E461024E0B580460F0092467F
:10587000036802252E009A691640154200D07AE08E
:10588000210000209A6984461140144210D0DC6146
:105890007A1C00D073E09A69920603D420219A6999
:1058A0001142FCD02022DA610122042194463143C6
:1058B00080209A694000024234D0012446462143A8
:1058C000D861500504D5082001438020C000D8616C
:1058D000920504D502221143FF32FF32DA619A6940
:1058E000920701D500229A6201229869024202D1F0
:1058F000986902439A615A68474802405A60736C3B
:1059000020220B4373644123F25400220133F254EA
:10591000402300220120F254F0BCBB46B246A94607
:10592000A046F8BD500501D54646CCE7920501D505
:105930004646CFE76246002A1FD17A1C9AD0FFF76D
:105940005DFD5346C01A43461B68B84202D8002F7B
:1059500000D08EE7022108009A691040114200D061
:1059600087E746462022736C134373644123F25445
:105970000133F054CCE70020CEE74646AFE72022C3
:1059800091463A00B34657464646904649469A697C
:1059900011423CD1FFF732FDC01B804502D3434684
:1059A000002B29D1422233685868B25C9969D2B27F
:1059B00094468022120211420FD08021C901084270
:1059C0000BD16246202A08D05A6811435960FFF76C
:1059D00015FD3368070000E0336849469A691142B3
:1059E000D4D1FFF70BFDC01B1928F5D93368474602
:1059F0009A69B046202657E7494633689A691142AA
:105A000005D1FFF7FBFCC01B8045F5D2CAE747462E
:105A1000B0465E4646E7C04600E800FEF8B54E4692
:105A200057464546DE46036891469A69E0B520240C
:105A300005000F001026920663D4320000209969F9
:105A400084460A400E420BD0DE617A1C63D19A690B
:105A50001442FCD00022DC6104210A4303398C4645
:105A6000802099694000014233D00124D86122434B
:105A7000480504D5082002438020C000D86189056C
:105A800004D502210A43FF31FF31D96199698907A1
:105A900001D50021996201219869014202D19869DA
:105AA0000143996159683E48014059606B6C13434A
:105AB0006B6420224123EA5400220133EA5440233C
:105AC00000220120EA54F0BCBB46B246A946A046DB
:105AD000F8BD4805CED48905D3D461460029D5D177
